{
  "contractName": "TokenMock",
  "abi": [
    {
      "constant": true,
      "inputs": [],
      "name": "mintingFinished",
      "outputs": [
        {
          "name": "",
          "type": "bool"
        }
      ],
      "payable": false,
      "stateMutability": "view",
      "type": "function"
    },
    {
      "constant": true,
      "inputs": [],
      "name": "name",
      "outputs": [
        {
          "name": "",
          "type": "string"
        }
      ],
      "payable": false,
      "stateMutability": "view",
      "type": "function"
    },
    {
      "constant": false,
      "inputs": [
        {
          "name": "_spender",
          "type": "address"
        },
        {
          "name": "_value",
          "type": "uint256"
        }
      ],
      "name": "approve",
      "outputs": [
        {
          "name": "",
          "type": "bool"
        }
      ],
      "payable": false,
      "stateMutability": "nonpayable",
      "type": "function"
    },
    {
      "constant": true,
      "inputs": [],
      "name": "totalSupply",
      "outputs": [
        {
          "name": "",
          "type": "uint256"
        }
      ],
      "payable": false,
      "stateMutability": "view",
      "type": "function"
    },
    {
      "constant": true,
      "inputs": [
        {
          "name": "",
          "type": "address"
        }
      ],
      "name": "specialAllowed",
      "outputs": [
        {
          "name": "",
          "type": "bool"
        }
      ],
      "payable": false,
      "stateMutability": "view",
      "type": "function"
    },
    {
      "constant": true,
      "inputs": [],
      "name": "DISTRIBUTION_INVESTORS",
      "outputs": [
        {
          "name": "",
          "type": "uint256"
        }
      ],
      "payable": false,
      "stateMutability": "view",
      "type": "function"
    },
    {
      "constant": true,
      "inputs": [],
      "name": "decimals",
      "outputs": [
        {
          "name": "",
          "type": "uint256"
        }
      ],
      "payable": false,
      "stateMutability": "view",
      "type": "function"
    },
    {
      "constant": true,
      "inputs": [],
      "name": "transferAllowed",
      "outputs": [
        {
          "name": "",
          "type": "bool"
        }
      ],
      "payable": false,
      "stateMutability": "view",
      "type": "function"
    },
    {
      "constant": true,
      "inputs": [],
      "name": "communityTokensHolder",
      "outputs": [
        {
          "name": "",
          "type": "address"
        }
      ],
      "payable": false,
      "stateMutability": "view",
      "type": "function"
    },
    {
      "constant": true,
      "inputs": [],
      "name": "DISTRIBUTION_TEAM",
      "outputs": [
        {
          "name": "",
          "type": "uint256"
        }
      ],
      "payable": false,
      "stateMutability": "view",
      "type": "function"
    },
    {
      "constant": true,
      "inputs": [],
      "name": "freeToExtraMinting",
      "outputs": [
        {
          "name": "",
          "type": "uint256"
        }
      ],
      "payable": false,
      "stateMutability": "view",
      "type": "function"
    },
    {
      "constant": true,
      "inputs": [],
      "name": "MAXSOLD_SUPPLY",
      "outputs": [
        {
          "name": "",
          "type": "uint256"
        }
      ],
      "payable": false,
      "stateMutability": "view",
      "type": "function"
    },
    {
      "constant": true,
      "inputs": [
        {
          "name": "_owner",
          "type": "address"
        }
      ],
      "name": "balanceOf",
      "outputs": [
        {
          "name": "",
          "type": "uint256"
        }
      ],
      "payable": false,
      "stateMutability": "view",
      "type": "function"
    },
    {
      "constant": false,
      "inputs": [],
      "name": "renounceOwnership",
      "outputs": [],
      "payable": false,
      "stateMutability": "nonpayable",
      "type": "function"
    },
    {
      "constant": true,
      "inputs": [],
      "name": "DISTRIBUTION_COMMUNITY",
      "outputs": [
        {
          "name": "",
          "type": "uint256"
        }
      ],
      "payable": false,
      "stateMutability": "view",
      "type": "function"
    },
    {
      "constant": false,
      "inputs": [],
      "name": "finishMinting",
      "outputs": [
        {
          "name": "",
          "type": "bool"
        }
      ],
      "payable": false,
      "stateMutability": "nonpayable",
      "type": "function"
    },
    {
      "constant": true,
      "inputs": [],
      "name": "owner",
      "outputs": [
        {
          "name": "",
          "type": "address"
        }
      ],
      "payable": false,
      "stateMutability": "view",
      "type": "function"
    },
    {
      "constant": true,
      "inputs": [],
      "name": "symbol",
      "outputs": [
        {
          "name": "",
          "type": "string"
        }
      ],
      "payable": false,
      "stateMutability": "view",
      "type": "function"
    },
    {
      "constant": true,
      "inputs": [],
      "name": "extraSupply",
      "outputs": [
        {
          "name": "",
          "type": "uint256"
        }
      ],
      "payable": false,
      "stateMutability": "view",
      "type": "function"
    },
    {
      "constant": true,
      "inputs": [],
      "name": "investorSupply",
      "outputs": [
        {
          "name": "",
          "type": "uint256"
        }
      ],
      "payable": false,
      "stateMutability": "view",
      "type": "function"
    },
    {
      "constant": true,
      "inputs": [
        {
          "name": "_owner",
          "type": "address"
        },
        {
          "name": "_spender",
          "type": "address"
        }
      ],
      "name": "allowance",
      "outputs": [
        {
          "name": "",
          "type": "uint256"
        }
      ],
      "payable": false,
      "stateMutability": "view",
      "type": "function"
    },
    {
      "constant": true,
      "inputs": [],
      "name": "teamTokensHolder",
      "outputs": [
        {
          "name": "",
          "type": "address"
        }
      ],
      "payable": false,
      "stateMutability": "view",
      "type": "function"
    },
    {
      "constant": false,
      "inputs": [
        {
          "name": "_newOwner",
          "type": "address"
        }
      ],
      "name": "transferOwnership",
      "outputs": [],
      "payable": false,
      "stateMutability": "nonpayable",
      "type": "function"
    },
    {
      "constant": true,
      "inputs": [],
      "name": "HARDCAPPED_SUPPLY",
      "outputs": [
        {
          "name": "",
          "type": "uint256"
        }
      ],
      "payable": false,
      "stateMutability": "view",
      "type": "function"
    },
    {
      "inputs": [
        {
          "name": "_name",
          "type": "string"
        },
        {
          "name": "_symbol",
          "type": "string"
        },
        {
          "name": "_decimals",
          "type": "uint256"
        }
      ],
      "payable": false,
      "stateMutability": "nonpayable",
      "type": "constructor"
    },
    {
      "payable": true,
      "stateMutability": "payable",
      "type": "fallback"
    },
    {
      "anonymous": false,
      "inputs": [
        {
          "indexed": false,
          "name": "state",
          "type": "bool"
        }
      ],
      "name": "ToggleTransferAllowance",
      "type": "event"
    },
    {
      "anonymous": false,
      "inputs": [
        {
          "indexed": true,
          "name": "who",
          "type": "address"
        },
        {
          "indexed": false,
          "name": "state",
          "type": "bool"
        }
      ],
      "name": "ToggleTransferAllowanceFor",
      "type": "event"
    },
    {
      "anonymous": false,
      "inputs": [
        {
          "indexed": true,
          "name": "from",
          "type": "address"
        },
        {
          "indexed": true,
          "name": "to",
          "type": "address"
        }
      ],
      "name": "ChangeCommunityHolder",
      "type": "event"
    },
    {
      "anonymous": false,
      "inputs": [
        {
          "indexed": true,
          "name": "from",
          "type": "address"
        },
        {
          "indexed": true,
          "name": "to",
          "type": "address"
        }
      ],
      "name": "ChangeTeamHolder",
      "type": "event"
    },
    {
      "anonymous": false,
      "inputs": [
        {
          "indexed": true,
          "name": "to",
          "type": "address"
        },
        {
          "indexed": false,
          "name": "amount",
          "type": "uint256"
        }
      ],
      "name": "Mint",
      "type": "event"
    },
    {
      "anonymous": false,
      "inputs": [],
      "name": "MintFinished",
      "type": "event"
    },
    {
      "anonymous": false,
      "inputs": [
        {
          "indexed": true,
          "name": "previousOwner",
          "type": "address"
        }
      ],
      "name": "OwnershipRenounced",
      "type": "event"
    },
    {
      "anonymous": false,
      "inputs": [
        {
          "indexed": true,
          "name": "previousOwner",
          "type": "address"
        },
        {
          "indexed": true,
          "name": "newOwner",
          "type": "address"
        }
      ],
      "name": "OwnershipTransferred",
      "type": "event"
    },
    {
      "anonymous": false,
      "inputs": [
        {
          "indexed": true,
          "name": "owner",
          "type": "address"
        },
        {
          "indexed": true,
          "name": "spender",
          "type": "address"
        },
        {
          "indexed": false,
          "name": "value",
          "type": "uint256"
        }
      ],
      "name": "Approval",
      "type": "event"
    },
    {
      "anonymous": false,
      "inputs": [
        {
          "indexed": true,
          "name": "from",
          "type": "address"
        },
        {
          "indexed": true,
          "name": "to",
          "type": "address"
        },
        {
          "indexed": false,
          "name": "value",
          "type": "uint256"
        }
      ],
      "name": "Transfer",
      "type": "event"
    },
    {
      "constant": false,
      "inputs": [
        {
          "name": "_tokenHolder",
          "type": "address"
        }
      ],
      "name": "setTeamTokensHolder",
      "outputs": [
        {
          "name": "",
          "type": "bool"
        }
      ],
      "payable": false,
      "stateMutability": "nonpayable",
      "type": "function"
    },
    {
      "constant": false,
      "inputs": [
        {
          "name": "_tokenHolder",
          "type": "address"
        }
      ],
      "name": "setCommunityTokensHolder",
      "outputs": [
        {
          "name": "",
          "type": "bool"
        }
      ],
      "payable": false,
      "stateMutability": "nonpayable",
      "type": "function"
    },
    {
      "constant": true,
      "inputs": [],
      "name": "currentOwner",
      "outputs": [
        {
          "name": "",
          "type": "address"
        }
      ],
      "payable": false,
      "stateMutability": "view",
      "type": "function"
    },
    {
      "constant": false,
      "inputs": [
        {
          "name": "_to",
          "type": "address"
        },
        {
          "name": "_value",
          "type": "uint256"
        }
      ],
      "name": "transfer",
      "outputs": [
        {
          "name": "",
          "type": "bool"
        }
      ],
      "payable": false,
      "stateMutability": "nonpayable",
      "type": "function"
    },
    {
      "constant": false,
      "inputs": [
        {
          "name": "_from",
          "type": "address"
        },
        {
          "name": "_to",
          "type": "address"
        },
        {
          "name": "_value",
          "type": "uint256"
        }
      ],
      "name": "transferFrom",
      "outputs": [
        {
          "name": "",
          "type": "bool"
        }
      ],
      "payable": false,
      "stateMutability": "nonpayable",
      "type": "function"
    },
    {
      "constant": false,
      "inputs": [],
      "name": "toggleTransfer",
      "outputs": [
        {
          "name": "",
          "type": "bool"
        }
      ],
      "payable": false,
      "stateMutability": "nonpayable",
      "type": "function"
    },
    {
      "constant": false,
      "inputs": [
        {
          "name": "_for",
          "type": "address"
        }
      ],
      "name": "toggleTransferFor",
      "outputs": [
        {
          "name": "",
          "type": "bool"
        }
      ],
      "payable": false,
      "stateMutability": "nonpayable",
      "type": "function"
    },
    {
      "constant": false,
      "inputs": [
        {
          "name": "_to",
          "type": "address"
        },
        {
          "name": "_amount",
          "type": "uint256"
        }
      ],
      "name": "mint",
      "outputs": [
        {
          "name": "",
          "type": "bool"
        }
      ],
      "payable": false,
      "stateMutability": "nonpayable",
      "type": "function"
    },
    {
      "constant": false,
      "inputs": [],
      "name": "extraMint",
      "outputs": [
        {
          "name": "",
          "type": "bool"
        }
      ],
      "payable": false,
      "stateMutability": "nonpayable",
      "type": "function"
    },
    {
      "constant": false,
      "inputs": [
        {
          "name": "_spender",
          "type": "address"
        },
        {
          "name": "_addedValue",
          "type": "uint256"
        }
      ],
      "name": "increaseApproval",
      "outputs": [
        {
          "name": "success",
          "type": "bool"
        }
      ],
      "payable": false,
      "stateMutability": "nonpayable",
      "type": "function"
    },
    {
      "constant": false,
      "inputs": [
        {
          "name": "_spender",
          "type": "address"
        },
        {
          "name": "_subtractedValue",
          "type": "uint256"
        }
      ],
      "name": "decreaseApproval",
      "outputs": [
        {
          "name": "success",
          "type": "bool"
        }
      ],
      "payable": false,
      "stateMutability": "nonpayable",
      "type": "function"
    }
  ],
  "bytecode": "0x6003805460a060020a60ff021916905560c0604052600960808190527f41434520546f6b656e000000000000000000000000000000000000000000000060a0908152620000509160049190620001eb565b506040805180820190915260038082527f414345000000000000000000000000000000000000000000000000000000000060209092019182526200009791600591620001eb565b506000600681905560078190556008819055600955600b805460a060020a60ff02191674010000000000000000000000000000000000000000179055348015620000e057600080fd5b506040516200171e3803806200171e83398101604090815281516020808401519284015160038054600160a060020a03191633179055918401805190949390930192620001349160049190860190620001eb565b5081516200014a906005906020850190620001eb565b506006819055600a805433600160a060020a0319918216811792839055600b8054909216179055604051600160a060020a03909116906000907f6eafbe888d6820eae9a9afe73b56c4ee57e9d5ddd95f9a276ce00e1e34e6c706908290a3600b54604051600160a060020a03909116906000907fc83ac557199800e98db357637b4350ad3bce0ae12849c192d960d22e32e6cf2e908290a350505062000290565b828054600181600116156101000203166002900490600052602060002090601f016020900481019282601f106200022e57805160ff19168380011785556200025e565b828001600101855582156200025e579182015b828111156200025e57825182559160200191906001019062000241565b506200026c92915062000270565b5090565b6200028d91905b808211156200026c576000815560010162000277565b90565b61147e80620002a06000396000f3006080604052600436106101b65763ffffffff7c010000000000000000000000000000000000000000000000000000000060003504166305d2035b81146101bd57806306fdde03146101e6578063095ea7b31461027057806317d286201461029457806318160ddd146102b55780632395e9b6146102dc57806323b872dd146102fd5780632f0c59e714610327578063313ce5671461033c57806334fec4671461035157806335b1097e14610366578063384c440b1461039757806340c10f19146103ac5780634ab798f1146103d057806356d0adac146103e557806366188463146103fa5780636e3491881461041e578063708cfb251461043357806370a0823114610454578063715018a61461047557806374e00730146103975780637d64bcb41461048a5780638da5cb5b1461049f57806395d89b41146104b45780639acdc0e3146104c9578063a9059cbb146104ea578063ad35bdb01461050e578063b387ef9214610523578063d73dd62314610538578063d862b6111461055c578063dc79d06914610571578063dd62ed3e14610586578063ed6a897d146105ad578063f2fde38b146105c2578063f344f4fa146105e3575b600080fd5b005b3480156101c957600080fd5b506101d26105f8565b604080519115158252519081900360200190f35b3480156101f257600080fd5b506101fb610608565b6040805160208082528351818301528351919283929083019185019080838360005b8381101561023557818101518382015260200161021d565b50505050905090810190601f1680156102625780820380516001836020036101000a031916815260200191505b509250505060405180910390f35b34801561027c57600080fd5b506101d2600160a060020a0360043516602435610696565b3480156102a057600080fd5b506101d2600160a060020a03600435166106fc565b3480156102c157600080fd5b506102ca610797565b60408051918252519081900360200190f35b3480156102e857600080fd5b506101d2600160a060020a036004351661079d565b34801561030957600080fd5b506101d2600160a060020a03600435811690602435166044356107b2565b34801561033357600080fd5b506102ca6107fa565b34801561034857600080fd5b506102ca6107ff565b34801561035d57600080fd5b506101d2610805565b34801561037257600080fd5b5061037b610815565b60408051600160a060020a039092168252519081900360200190f35b3480156103a357600080fd5b506102ca610824565b3480156103b857600080fd5b506101d2600160a060020a0360043516602435610829565b3480156103dc57600080fd5b506101d2610977565b3480156103f157600080fd5b506102ca610a10565b34801561040657600080fd5b506101d2600160a060020a0360043516602435610a16565b34801561042a57600080fd5b506102ca610b06565b34801561043f57600080fd5b506101d2600160a060020a0360043516610b0e565b34801561046057600080fd5b506102ca600160a060020a0360043516610ba6565b34801561048157600080fd5b506101bb610bc1565b34801561049657600080fd5b506101d2610c2f565b3480156104ab57600080fd5b5061037b610cb3565b3480156104c057600080fd5b506101fb610cc2565b3480156104d557600080fd5b506101d2600160a060020a0360043516610d1d565b3480156104f657600080fd5b506101d2600160a060020a0360043516602435610db5565b34801561051a57600080fd5b506102ca610dfb565b34801561052f57600080fd5b5061037b610e01565b34801561054457600080fd5b506101d2600160a060020a0360043516602435610e10565b34801561056857600080fd5b506101d2610ea9565b34801561057d57600080fd5b506102ca6110f4565b34801561059257600080fd5b506102ca600160a060020a03600435811690602435166110fa565b3480156105b957600080fd5b5061037b611125565b3480156105ce57600080fd5b506101bb600160a060020a0360043516611134565b3480156105ef57600080fd5b506102ca611157565b60035460a060020a900460ff1681565b6004805460408051602060026001851615610100026000190190941693909304601f8101849004840282018401909252818152929183018282801561068e5780601f106106635761010080835404028352916020019161068e565b820191906000526020600020905b81548152906001019060200180831161067157829003601f168201915b505050505081565b336000818152600260209081526040808320600160a060020a038716808552908352818420869055815186815291519394909390927f8c5be1e5ebec7d5bd14f71427d1e84f3dd0314c0f7b2291e5b200ac8c7c3b925928290030190a350600192915050565b600354600090600160a060020a0316331461071657600080fd5b600160a060020a0382166000818152600c6020908152604091829020805460ff19811660ff918216151791829055835191161515815291517f0e3be37de3a6671de0615d261214611985deeff6c0bb8a344ee0d6adca8542009281900390910190a250600160a060020a03166000908152600c602052604090205460ff1690565b60015490565b600c6020526000908152604090205460ff1681565b600b5460009060a060020a900460ff16806107dc5750336000908152600c602052604090205460ff165b15156107e757600080fd5b6107f284848461115f565b949350505050565b603c81565b60065481565b600b5460a060020a900460ff1681565b600b54600160a060020a031681565b601481565b6003546000908190600160a060020a0316331461084557600080fd5b60035460a060020a900460ff161561085c57600080fd5b6000831161086957600080fd5b610879818463ffffffff6112c216565b60075490915061088f908463ffffffff6112c216565b6007556009546108a5908463ffffffff6112c216565b6009556007546305e69ec010156108b857fe5b6309d5b3408111156108c657fe5b600160a060020a0384166000908152602081905260409020546108ef908463ffffffff6112c216565b600160a060020a03851660008181526020818152604091829020939093558051868152905191927f0f6798a560793a54c3bcfe86a93cde1e73087d944c0ea20544137d412139688592918290030190a2604080518481529051600160a060020a0386169130916000805160206114338339815191529181900360200190a35060019392505050565b600354600090600160a060020a0316331461099157600080fd5b600b805460ff60a060020a808304821615810274ff00000000000000000000000000000000000000001990931692909217928390556040805192909304161515815290517ff900592a77a3fc7d9e10afc446a9a561f13139aa4500db01207b92198e2fa49e9181900360200190a150600b5460a060020a900460ff1690565b60095481565b336000908152600260209081526040808320600160a060020a038616845290915281205480831115610a6b57336000908152600260209081526040808320600160a060020a0388168452909152812055610aa0565b610a7b818463ffffffff6112d516565b336000908152600260209081526040808320600160a060020a03891684529091529020555b336000818152600260209081526040808320600160a060020a0389168085529083529281902054815190815290519293927f8c5be1e5ebec7d5bd14f71427d1e84f3dd0314c0f7b2291e5b200ac8c7c3b925929181900390910190a35060019392505050565b6305e69ec081565b6003546000908190600160a060020a03163314610b2a57600080fd5b600160a060020a0383161515610b3f57600080fd5b50600a8054600160a060020a0384811673ffffffffffffffffffffffffffffffffffffffff198316179283905560405191811692169082907f6eafbe888d6820eae9a9afe73b56c4ee57e9d5ddd95f9a276ce00e1e34e6c70690600090a350600192915050565b600160a060020a031660009081526020819052604090205490565b600354600160a060020a03163314610bd857600080fd5b600354604051600160a060020a03909116907ff8df31144d9c2f0f6b59d69b8b98abd5459d07f2742c4df920b25aae33c6482090600090a26003805473ffffffffffffffffffffffffffffffffffffffff19169055565b600354600090600160a060020a03163314610c4957600080fd5b60035460a060020a900460ff1615610c6057600080fd5b6003805474ff0000000000000000000000000000000000000000191660a060020a1790556040517fae5184fba832cb2b1f702aca6117b8d265eaf03ad33eb133f19dde0f5920fa0890600090a150600190565b600354600160a060020a031681565b6005805460408051602060026001851615610100026000190190941693909304601f8101849004840282018401909252818152929183018282801561068e5780601f106106635761010080835404028352916020019161068e565b6003546000908190600160a060020a03163314610d3957600080fd5b600160a060020a0383161515610d4e57600080fd5b50600b8054600160a060020a0384811673ffffffffffffffffffffffffffffffffffffffff198316179283905560405191811692169082907fc83ac557199800e98db357637b4350ad3bce0ae12849c192d960d22e32e6cf2e90600090a350600192915050565b600b5460009060a060020a900460ff1680610ddf5750336000908152600c602052604090205460ff165b1515610dea57600080fd5b610df483836112e7565b9392505050565b60085481565b600354600160a060020a031690565b336000908152600260209081526040808320600160a060020a0386168452909152812054610e44908363ffffffff6112c216565b336000818152600260209081526040808320600160a060020a0389168085529083529281902085905580519485525191937f8c5be1e5ebec7d5bd14f71427d1e84f3dd0314c0f7b2291e5b200ac8c7c3b925929081900390910190a350600192915050565b600354600090819081908190819081908190600160a060020a03163314610ecf57600080fd5b60035460a060020a900460ff1615610ee657600080fd5b600954600010610ef557600080fd5b600954603c90049550601486029450849350610f17848063ffffffff6112c216565b9250610f29828463ffffffff6112c216565b600854909250610f3f908463ffffffff6112c216565b600855600954603c9006600981905590506309d5b340821115610f5e57fe5b610f766309d5b3406305e69ec063ffffffff6112d516565b6008541115610f8157fe5b600a54600160a060020a0316600090815260208190526040902054610fac908663ffffffff6112c216565b600a54600160a060020a0390811660009081526020819052604080822093909355600b5490911681522054610fe7908563ffffffff6112c216565b600b54600160a060020a039081166000908152602081815260409182902093909355600a54815189815291519216927f0f6798a560793a54c3bcfe86a93cde1e73087d944c0ea20544137d412139688592918290030190a2600a54604080518781529051600160a060020a03909216913091600080516020611433833981519152919081900360200190a3600b54604080518681529051600160a060020a03909216917f0f6798a560793a54c3bcfe86a93cde1e73087d944c0ea20544137d41213968859181900360200190a2600b54604080518681529051600160a060020a03909216913091600080516020611433833981519152919081900360200190a36001965050505050505090565b60075481565b600160a060020a03918216600090815260026020908152604080832093909416825291909152205490565b600a54600160a060020a031681565b600354600160a060020a0316331461114b57600080fd5b611154816113b4565b50565b6309d5b34081565b600160a060020a03831660009081526020819052604081205482111561118457600080fd5b600160a060020a03841660009081526002602090815260408083203384529091529020548211156111b457600080fd5b600160a060020a03831615156111c957600080fd5b600160a060020a0384166000908152602081905260409020546111f2908363ffffffff6112d516565b600160a060020a038086166000908152602081905260408082209390935590851681522054611227908363ffffffff6112c216565b600160a060020a03808516600090815260208181526040808320949094559187168152600282528281203382529091522054611269908363ffffffff6112d516565b600160a060020a0380861660008181526002602090815260408083203384528252918290209490945580518681529051928716939192600080516020611433833981519152929181900390910190a35060019392505050565b818101828110156112cf57fe5b92915050565b6000828211156112e157fe5b50900390565b3360009081526020819052604081205482111561130357600080fd5b600160a060020a038316151561131857600080fd5b33600090815260208190526040902054611338908363ffffffff6112d516565b3360009081526020819052604080822092909255600160a060020a0385168152205461136a908363ffffffff6112c216565b600160a060020a038416600081815260208181526040918290209390935580518581529051919233926000805160206114338339815191529281900390910190a350600192915050565b600160a060020a03811615156113c957600080fd5b600354604051600160a060020a038084169216907f8be0079c531659141344cd1fd0a4f28419497f9722a3daafe3b4186f6b6457e090600090a36003805473ffffffffffffffffffffffffffffffffffffffff1916600160a060020a03929092169190911790555600ddf252ad1be2c89b69c2b068fc378daa952ba7f163c4a11628f55a4df523b3efa165627a7a72305820b20bc819bfb9224cdd34091471a683e9a1562de40ed89c6781f8fee0686bfae30029",
  "source": "// ACE Token is a first token of TokenStars platform\n// Copyright (c) 2017 TokenStars\n// Made by Aler Denisov\n// Permission is hereby granted, free of charge, to any person obtaining a copy\n// of this software and associated documentation files (the \"Software\"), to deal\n// in the Software without restriction, including without limitation the rights\n// to use, copy, modify, merge, publish, distribute, sublicense, and/or sell\n// copies of the Software, and to permit persons to whom the Software is\n// furnished to do so, subject to the following conditions:\n\n// The above copyright notice and this permission notice shall be included in all\n// copies or substantial portions of the Software.\n\n// THE SOFTWARE IS PROVIDED \"AS IS\", WITHOUT WARRANTY OF ANY KIND, EXPRESS OR\n// IMPLIED, INCLUDING BUT NOT LIMITED TO THE WARRANTIES OF MERCHANTABILITY,\n// FITNESS FOR A PARTICULAR PURPOSE AND NONINFRINGEMENT. IN NO EVENT SHALL THE\n// AUTHORS OR COPYRIGHT HOLDERS BE LIABLE FOR ANY CLAIM, DAMAGES OR OTHER\n// LIABILITY, WHETHER IN AN ACTION OF CONTRACT, TORT OR OTHERWISE, ARISING FROM,\n// OUT OF OR IN CONNECTION WITH THE SOFTWARE OR THE USE OR OTHER DEALINGS IN THE\n// SOFTWARE.\n\npragma solidity ^0.4.18;\n\nimport 'zeppelin-solidity/contracts/math/SafeMath.sol';\nimport 'zeppelin-solidity/contracts/token/ERC20/MintableToken.sol';\n\ncontract TokenMock is MintableToken {\n    using SafeMath for uint256;\n    \n    // ERC20 constants\n    string public name = \"ACE Token\";\n    string public symbol = \"ACE\";\n    uint public decimals = 0;\n\n    // Minting constants\n    uint256 public constant MAXSOLD_SUPPLY = 99000000;\n    uint256 public constant HARDCAPPED_SUPPLY = 165000000;\n\n    uint256 public investorSupply = 0;\n    uint256 public extraSupply = 0;\n    uint256 public freeToExtraMinting = 0;\n\n    uint256 public constant DISTRIBUTION_INVESTORS = 60;\n    uint256 public constant DISTRIBUTION_TEAM      = 20;\n    uint256 public constant DISTRIBUTION_COMMUNITY = 20;\n\n    address public teamTokensHolder;\n    address public communityTokensHolder;\n\n    // Transfer rules\n    bool public transferAllowed = true;\n    mapping (address=>bool) public specialAllowed;\n\n    // Transfer rules events\n    event ToggleTransferAllowance(bool state);\n    event ToggleTransferAllowanceFor(address indexed who, bool state);\n\n    // Holders events\n    event ChangeCommunityHolder(address indexed from, address indexed to);\n    event ChangeTeamHolder(address indexed from, address indexed to);\n\n    /**\n    * @dev check transfer is allowed\n    */\n    modifier allowTransfer() {\n        require(transferAllowed || specialAllowed[msg.sender]);\n        _;\n    }\n\n    function TokenMock(string _name, string _symbol, uint256 _decimals) {\n      name = _name;\n      symbol = _symbol;\n      decimals = _decimals;\n\n      teamTokensHolder = msg.sender;\n      communityTokensHolder = msg.sender;\n      \n      ChangeTeamHolder(0x0, teamTokensHolder);\n      ChangeCommunityHolder(0x0, communityTokensHolder);\n    }\n\n    /**\n    * @dev change team tokens holder\n    * @param _tokenHolder The address of next team tokens holder\n    */\n    function setTeamTokensHolder(address _tokenHolder) onlyOwner returns (bool) {\n      require(_tokenHolder != 0);\n      address temporaryEventAddress = teamTokensHolder;\n      teamTokensHolder = _tokenHolder;\n      ChangeTeamHolder(temporaryEventAddress, teamTokensHolder);\n      return true;\n    }\n\n    /**\n    * @dev change community tokens holder\n    * @param _tokenHolder The address of next community tokens holder\n    */\n    function setCommunityTokensHolder(address _tokenHolder) onlyOwner returns (bool) {\n      require(_tokenHolder != 0);\n      address temporaryEventAddress = communityTokensHolder;\n      communityTokensHolder = _tokenHolder;\n      ChangeCommunityHolder(temporaryEventAddress, communityTokensHolder);\n      return true;\n    }\n\n    /**\n    * @dev Doesn't allow to send funds on contract!\n    */\n    function () payable {\n        require(false);\n    }\n\n    function currentOwner() constant public returns (address) {\n      return owner;\n    }\n\n    /**\n    * @dev transfer token for a specified address if transfer is open\n    * @param _to The address to transfer to.\n    * @param _value The amount to be transferred.\n    */\n    function transfer(address _to, uint256 _value) allowTransfer returns (bool) {\n        return super.transfer(_to, _value);\n    }\n\n    \n    /**\n    * @dev Transfer tokens from one address to another if transfer is open\n    * @param _from address The address which you want to send tokens from\n    * @param _to address The address which you want to transfer to\n    * @param _value uint256 the amount of tokens to be transferred\n     */\n    function transferFrom(address _from, address _to, uint256 _value) allowTransfer returns (bool) {\n        return super.transferFrom(_from, _to, _value);\n    }\n\n    /**\n    * @dev Change current state of transfer allowence to opposite\n     */\n    function toggleTransfer() onlyOwner returns (bool) {\n        transferAllowed = !transferAllowed;\n        ToggleTransferAllowance(transferAllowed);\n        return transferAllowed;\n    }\n\n    /**\n    * @dev allow transfer for the given address against global rules\n    * @param _for addres The address of special allowed transfer (required for smart contracts)\n     */\n    function toggleTransferFor(address _for) onlyOwner returns (bool) {\n        specialAllowed[_for] = !specialAllowed[_for];\n        ToggleTransferAllowanceFor(_for, specialAllowed[_for]);\n        return specialAllowed[_for];\n    }\n\n    /**\n    * @dev Function to mint tokens for investor\n    * @param _to The address that will receive the minted tokens.\n    * @param _amount The amount of tokens to emit.\n    * @return A boolean that indicates if the operation was successful.\n    */\n    function mint(address _to, uint256 _amount) onlyOwner canMint returns (bool) {\n        require(_amount > 0);\n        uint256 totalSupply;\n        totalSupply = totalSupply.add(_amount);\n        investorSupply = investorSupply.add(_amount);\n        freeToExtraMinting = freeToExtraMinting.add(_amount);\n\n        // Prevent to emit more than sale hardcap!\n        assert(investorSupply <= MAXSOLD_SUPPLY);\n        assert(totalSupply <= HARDCAPPED_SUPPLY);\n\n        balances[_to] = balances[_to].add(_amount);\n        Mint(_to, _amount);\n        Transfer(address(this), _to, _amount);\n        return true;\n    }\n\n    function extraMint() onlyOwner canMint returns (bool) {\n      require(freeToExtraMinting > 0);\n\n      uint256 onePercent = freeToExtraMinting / DISTRIBUTION_INVESTORS;\n      uint256 teamPart = onePercent * DISTRIBUTION_TEAM;\n      uint256 communityPart = onePercent * DISTRIBUTION_COMMUNITY;\n      uint256 extraTokens = teamPart.add(communityPart);\n\n      uint256 totalSupply;\n      totalSupply = totalSupply.add(extraTokens);\n      extraSupply = extraSupply.add(extraTokens);\n\n      uint256 leftToNextMinting = freeToExtraMinting % DISTRIBUTION_INVESTORS;\n      freeToExtraMinting = leftToNextMinting;\n\n      assert(totalSupply <= HARDCAPPED_SUPPLY);\n      assert(extraSupply <= HARDCAPPED_SUPPLY.sub(MAXSOLD_SUPPLY));\n\n      balances[teamTokensHolder] = balances[teamTokensHolder].add(teamPart);\n      balances[communityTokensHolder] = balances[communityTokensHolder].add(communityPart);\n\n      Mint(teamTokensHolder, teamPart);\n      Transfer(address(this), teamTokensHolder, teamPart);\n      Mint(communityTokensHolder, communityPart);\n      Transfer(address(this), communityTokensHolder, communityPart);\n\n      return true;\n    }\n\n    /**\n    * @dev Increase approved amount to spend \n    * @param _spender The address which will spend the funds.\n    * @param _addedValue The amount of tokens to increase already approved amount. \n     */\n    function increaseApproval (address _spender, uint _addedValue) returns (bool success) {\n        allowed[msg.sender][_spender] = allowed[msg.sender][_spender].add(_addedValue);\n        Approval(msg.sender, _spender, allowed[msg.sender][_spender]);\n        return true;\n    }\n\n    /**\n    * @dev Decrease approved amount to spend \n    * @param _spender The address which will spend the funds.\n    * @param _subtractedValue The amount of tokens to decrease already approved amount. \n     */\n    function decreaseApproval (address _spender, uint _subtractedValue) returns (bool success) {\n        uint oldValue = allowed[msg.sender][_spender];\n        if (_subtractedValue > oldValue) {\n            allowed[msg.sender][_spender] = 0;\n        } else {\n            allowed[msg.sender][_spender] = oldValue.sub(_subtractedValue);\n        }\n        Approval(msg.sender, _spender, allowed[msg.sender][_spender]);\n        return true;\n    }\n}\n\ncontract AceToken is TokenMock {\n    \n    function AceToken()\n      TokenMock(\"ACE Token\", \"ACE\", 0)\n    {\n    }\n}\n\ncontract TeamToken is TokenMock {\n    \n    function TeamToken()\n      TokenMock(\"TEAM Token\", \"TEAM\", 4)\n    {\n    }\n}",
  "sourcePath": "D:/WORK/GIT/SolidityAuction/contracts/TokenMock.sol",
  "compiler": {
    "name": "solc",
    "version": "0.4.24+commit.e67f0147.Emscripten.clang"
  },
  "schemaVersion": "3.0.3",
  "updatedAt": "2019-04-02T11:13:54.073Z",
  "devdoc": {
    "methods": {
      "allowance(address,address)": {
        "details": "Function to check the amount of tokens that an owner allowed to a spender.",
        "params": {
          "_owner": "address The address which owns the funds.",
          "_spender": "address The address which will spend the funds."
        },
        "return": "A uint256 specifying the amount of tokens still available for the spender."
      },
      "approve(address,uint256)": {
        "details": "Approve the passed address to spend the specified amount of tokens on behalf of msg.sender. Beware that changing an allowance with this method brings the risk that someone may use both the old and the new allowance by unfortunate transaction ordering. One possible solution to mitigate this race condition is to first reduce the spender's allowance to 0 and set the desired value afterwards: https://github.com/ethereum/EIPs/issues/20#issuecomment-263524729",
        "params": {
          "_spender": "The address which will spend the funds.",
          "_value": "The amount of tokens to be spent."
        }
      },
      "balanceOf(address)": {
        "details": "Gets the balance of the specified address.",
        "params": {
          "_owner": "The address to query the the balance of."
        },
        "return": "An uint256 representing the amount owned by the passed address."
      },
      "decreaseApproval(address,uint256)": {
        "details": "Decrease approved amount to spend ",
        "params": {
          "_spender": "The address which will spend the funds.",
          "_subtractedValue": "The amount of tokens to decrease already approved amount. "
        }
      },
      "finishMinting()": {
        "details": "Function to stop minting new tokens.",
        "return": "True if the operation was successful."
      },
      "increaseApproval(address,uint256)": {
        "details": "Increase approved amount to spend ",
        "params": {
          "_addedValue": "The amount of tokens to increase already approved amount. ",
          "_spender": "The address which will spend the funds."
        }
      },
      "mint(address,uint256)": {
        "details": "Function to mint tokens for investor",
        "params": {
          "_amount": "The amount of tokens to emit.",
          "_to": "The address that will receive the minted tokens."
        },
        "return": "A boolean that indicates if the operation was successful."
      },
      "renounceOwnership()": {
        "details": "Allows the current owner to relinquish control of the contract."
      },
      "setCommunityTokensHolder(address)": {
        "details": "change community tokens holder",
        "params": {
          "_tokenHolder": "The address of next community tokens holder"
        }
      },
      "setTeamTokensHolder(address)": {
        "details": "change team tokens holder",
        "params": {
          "_tokenHolder": "The address of next team tokens holder"
        }
      },
      "toggleTransfer()": {
        "details": "Change current state of transfer allowence to opposite"
      },
      "toggleTransferFor(address)": {
        "details": "allow transfer for the given address against global rules",
        "params": {
          "_for": "addres The address of special allowed transfer (required for smart contracts)"
        }
      },
      "totalSupply()": {
        "details": "Total number of tokens in existence"
      },
      "transfer(address,uint256)": {
        "details": "transfer token for a specified address if transfer is open",
        "params": {
          "_to": "The address to transfer to.",
          "_value": "The amount to be transferred."
        }
      },
      "transferFrom(address,address,uint256)": {
        "details": "Transfer tokens from one address to another if transfer is open",
        "params": {
          "_from": "address The address which you want to send tokens from",
          "_to": "address The address which you want to transfer to",
          "_value": "uint256 the amount of tokens to be transferred"
        }
      },
      "transferOwnership(address)": {
        "details": "Allows the current owner to transfer control of the contract to a newOwner.",
        "params": {
          "_newOwner": "The address to transfer ownership to."
        }
      }
    }
  },
  "userdoc": {
    "methods": {
      "renounceOwnership()": {
        "notice": "Renouncing to ownership will leave the contract without an owner. It will not be possible to call the functions with the `onlyOwner` modifier anymore."
      }
    }
  }
}