{
  "contractName": "TokenStarsAuction",
  "abi": [
    {
      "constant": false,
      "inputs": [],
      "name": "withdraw",
      "outputs": [
        {
          "name": "success",
          "type": "bool"
        }
      ],
      "payable": false,
      "stateMutability": "nonpayable",
      "type": "function"
    },
    {
      "constant": false,
      "inputs": [],
      "name": "finalize",
      "outputs": [
        {
          "name": "",
          "type": "bool"
        }
      ],
      "payable": false,
      "stateMutability": "nonpayable",
      "type": "function"
    },
    {
      "constant": true,
      "inputs": [],
      "name": "maxTokenBidInEther",
      "outputs": [
        {
          "name": "",
          "type": "uint256"
        }
      ],
      "payable": false,
      "stateMutability": "view",
      "type": "function"
    },
    {
      "constant": true,
      "inputs": [],
      "name": "endSeconds",
      "outputs": [
        {
          "name": "",
          "type": "uint256"
        }
      ],
      "payable": false,
      "stateMutability": "view",
      "type": "function"
    },
    {
      "constant": false,
      "inputs": [
        {
          "name": "_token",
          "type": "address"
        },
        {
          "name": "_tokensNumber",
          "type": "uint256"
        }
      ],
      "name": "bid",
      "outputs": [
        {
          "name": "isHighest",
          "type": "bool"
        }
      ],
      "payable": true,
      "stateMutability": "payable",
      "type": "function"
    },
    {
      "constant": false,
      "inputs": [
        {
          "name": "_managedBidder",
          "type": "uint64"
        },
        {
          "name": "_managedBid",
          "type": "uint256"
        }
      ],
      "name": "managedBid",
      "outputs": [
        {
          "name": "isHighest",
          "type": "bool"
        }
      ],
      "payable": false,
      "stateMutability": "nonpayable",
      "type": "function"
    },
    {
      "constant": true,
      "inputs": [],
      "name": "owner",
      "outputs": [
        {
          "name": "",
          "type": "address"
        }
      ],
      "payable": false,
      "stateMutability": "view",
      "type": "function"
    },
    {
      "constant": true,
      "inputs": [
        {
          "name": "_bidder",
          "type": "address"
        }
      ],
      "name": "totalDirectBid",
      "outputs": [
        {
          "name": "",
          "type": "uint256"
        }
      ],
      "payable": false,
      "stateMutability": "view",
      "type": "function"
    },
    {
      "constant": true,
      "inputs": [],
      "name": "highestBidder",
      "outputs": [
        {
          "name": "",
          "type": "address"
        }
      ],
      "payable": false,
      "stateMutability": "view",
      "type": "function"
    },
    {
      "constant": false,
      "inputs": [
        {
          "name": "_managedBidder",
          "type": "uint64"
        },
        {
          "name": "_managedBid",
          "type": "uint256"
        },
        {
          "name": "_knownManagedBidder",
          "type": "address"
        }
      ],
      "name": "managedBid2",
      "outputs": [
        {
          "name": "isHighest",
          "type": "bool"
        }
      ],
      "payable": false,
      "stateMutability": "nonpayable",
      "type": "function"
    },
    {
      "constant": true,
      "inputs": [],
      "name": "cancelled",
      "outputs": [
        {
          "name": "",
          "type": "bool"
        }
      ],
      "payable": false,
      "stateMutability": "view",
      "type": "function"
    },
    {
      "constant": true,
      "inputs": [],
      "name": "highestManagedBidder",
      "outputs": [
        {
          "name": "",
          "type": "uint64"
        }
      ],
      "payable": false,
      "stateMutability": "view",
      "type": "function"
    },
    {
      "constant": true,
      "inputs": [],
      "name": "allowManagedBids",
      "outputs": [
        {
          "name": "",
          "type": "bool"
        }
      ],
      "payable": false,
      "stateMutability": "view",
      "type": "function"
    },
    {
      "constant": true,
      "inputs": [],
      "name": "finalized",
      "outputs": [
        {
          "name": "",
          "type": "bool"
        }
      ],
      "payable": false,
      "stateMutability": "view",
      "type": "function"
    },
    {
      "constant": false,
      "inputs": [
        {
          "name": "_to",
          "type": "address"
        },
        {
          "name": "_amount",
          "type": "uint256"
        }
      ],
      "name": "sendEther",
      "outputs": [
        {
          "name": "",
          "type": "bool"
        }
      ],
      "payable": false,
      "stateMutability": "nonpayable",
      "type": "function"
    },
    {
      "constant": true,
      "inputs": [],
      "name": "highestBid",
      "outputs": [
        {
          "name": "",
          "type": "uint256"
        }
      ],
      "payable": false,
      "stateMutability": "view",
      "type": "function"
    },
    {
      "constant": true,
      "inputs": [],
      "name": "minPrice",
      "outputs": [
        {
          "name": "",
          "type": "uint256"
        }
      ],
      "payable": false,
      "stateMutability": "view",
      "type": "function"
    },
    {
      "constant": false,
      "inputs": [
        {
          "name": "_token",
          "type": "address"
        },
        {
          "name": "_to",
          "type": "address"
        },
        {
          "name": "_amount",
          "type": "uint256"
        }
      ],
      "name": "sendTokens",
      "outputs": [
        {
          "name": "",
          "type": "bool"
        }
      ],
      "payable": false,
      "stateMutability": "nonpayable",
      "type": "function"
    },
    {
      "constant": false,
      "inputs": [],
      "name": "cancel",
      "outputs": [
        {
          "name": "success",
          "type": "bool"
        }
      ],
      "payable": false,
      "stateMutability": "nonpayable",
      "type": "function"
    },
    {
      "constant": true,
      "inputs": [],
      "name": "item",
      "outputs": [
        {
          "name": "",
          "type": "string"
        }
      ],
      "payable": false,
      "stateMutability": "view",
      "type": "function"
    },
    {
      "inputs": [
        {
          "name": "_owner",
          "type": "address"
        }
      ],
      "payable": false,
      "stateMutability": "nonpayable",
      "type": "constructor"
    },
    {
      "payable": true,
      "stateMutability": "payable",
      "type": "fallback"
    },
    {
      "constant": false,
      "inputs": [
        {
          "name": "_tokensNumber",
          "type": "uint256"
        }
      ],
      "name": "bidAce",
      "outputs": [
        {
          "name": "isHighest",
          "type": "bool"
        }
      ],
      "payable": true,
      "stateMutability": "payable",
      "type": "function"
    },
    {
      "constant": false,
      "inputs": [
        {
          "name": "_tokensNumber",
          "type": "uint256"
        }
      ],
      "name": "bidTeam",
      "outputs": [
        {
          "name": "isHighest",
          "type": "bool"
        }
      ],
      "payable": true,
      "stateMutability": "payable",
      "type": "function"
    }
  ],
  "bytecode": "0x608060405234801561001057600080fd5b506040516020806112e2833981016040525180600160a060020a038116151561003857600080fd5b60008054600160a060020a03909216600160a060020a031990921691909117905550611279806100696000396000f30060806040526004361061010e5763ffffffff60e060020a6000350416633ccfd60b81146101b75780634bb278f3146101e05780634c8cb943146101f55780634c936ea81461021c57806359d667a51461023157806386c1497c14610248578063898ae4e31461026d5780638da5cb5b1461027857806390d0da9f146102a957806391f90157146102ca5780639914c2e3146102df5780639a82a09a146103105780639b412150146103255780639d6e653814610310578063b3f05b9714610357578063c1756a2c1461036c578063d57bde7914610390578063e45be8eb146103a5578063e6d66ac8146103ba578063ea8a1af0146103e4578063f2a4a82e146103f9578063f3f80d9114610483575b60008054604080517fb567858800000000000000000000000000000000000000000000000000000000815233600482015234602482015260448101849052606481018490529051600160a060020a039092169263b5678588926084808401936020939083900390910190829087803b15801561018957600080fd5b505af115801561019d573d6000803e3d6000fd5b505050506040513d60208110156101b357600080fd5b5050005b3480156101c357600080fd5b506101cc61048e565b604080519115158252519081900360200190f35b3480156101ec57600080fd5b506101cc610525565b34801561020157600080fd5b5061020a6105fe565b60408051918252519081900360200190f35b34801561022857600080fd5b5061020a610684565b6101cc600160a060020a0360043516602435610707565b34801561025457600080fd5b506101cc67ffffffffffffffff6004351660243561087c565b6101cc600435610982565b34801561028457600080fd5b5061028d610a1b565b60408051600160a060020a039092168252519081900360200190f35b3480156102b557600080fd5b5061020a600160a060020a0360043516610a2a565b3480156102d657600080fd5b5061028d610ac2565b3480156102eb57600080fd5b506101cc67ffffffffffffffff60043516602435600160a060020a0360443516610b48565b34801561031c57600080fd5b506101cc610c85565b34801561033157600080fd5b5061033a610d0b565b6040805167ffffffffffffffff9092168252519081900360200190f35b34801561036357600080fd5b506101cc610d91565b34801561037857600080fd5b506101cc600160a060020a0360043516602435610e17565b34801561039c57600080fd5b5061020a610e5a565b3480156103b157600080fd5b5061020a610ee0565b3480156103c657600080fd5b506101cc600160a060020a0360043581169060243516604435610f66565b3480156103f057600080fd5b506101cc610fe1565b34801561040557600080fd5b5061040e6110ba565b6040805160208082528351818301528351919283929083019185019080838360005b83811015610448578181015183820152602001610430565b50505050905090810190601f1680156104755780820380516001836020036101000a031916815260200191505b509250505060405180910390f35b6101cc6004356111ec565b60008054604080517f51cff8d90000000000000000000000000000000000000000000000000000000081523360048201529051600160a060020a03909216916351cff8d99160248082019260209290919082900301818787803b1580156104f457600080fd5b505af1158015610508573d6000803e3d6000fd5b505050506040513d602081101561051e57600080fd5b5051905090565b600080546040805160e060020a633bbac5790281523360048201529051600160a060020a0390921691633bbac5799160248082019260209290919082900301818787803b15801561057557600080fd5b505af1158015610589573d6000803e3d6000fd5b505050506040513d602081101561059f57600080fd5b505115156105ac57600080fd5b6000809054906101000a9004600160a060020a0316600160a060020a0316634bb278f36040518163ffffffff1660e060020a028152600401602060405180830381600087803b1580156104f457600080fd5b600080546040805160e060020a63265d903502815230600482015290518392600160a060020a03169163265d90359160248083019261014092919082900301818787803b15801561064e57600080fd5b505af1158015610662573d6000803e3d6000fd5b505050506040513d61014081101561067957600080fd5b506020015192915050565b600080546040805160e060020a63265d903502815230600482015290518392600160a060020a03169163265d90359160248083019261014092919082900301818787803b1580156106d457600080fd5b505af11580156106e8573d6000803e3d6000fd5b505050506040513d6101408110156106ff57600080fd5b505192915050565b6000600160a060020a038316158015906107215750600082115b156107cb57604080517f23b872dd000000000000000000000000000000000000000000000000000000008152336004820152306024820152604481018490529051600160a060020a038516916323b872dd9160648083019260209291908290030181600087803b15801561079457600080fd5b505af11580156107a8573d6000803e3d6000fd5b505050506040513d60208110156107be57600080fd5b505115156107cb57600080fd5b60008054604080517fb5678588000000000000000000000000000000000000000000000000000000008152336004820152346024820152600160a060020a038781166044830152606482018790529151919092169263b567858892608480820193602093909283900390910190829087803b15801561084957600080fd5b505af115801561085d573d6000803e3d6000fd5b505050506040513d602081101561087357600080fd5b50519392505050565b600080546040805160e060020a633bbac5790281523360048201529051600160a060020a0390921691633bbac5799160248082019260209290919082900301818787803b1580156108cc57600080fd5b505af11580156108e0573d6000803e3d6000fd5b505050506040513d60208110156108f657600080fd5b5051151561090357600080fd5b60008054604080517f713674cf00000000000000000000000000000000000000000000000000000000815267ffffffffffffffff8716600482015260248101869052604481018490529051600160a060020a039092169263713674cf926064808401936020939083900390910190829087803b15801561084957600080fd5b60008054604080517f8df5f0b50000000000000000000000000000000000000000000000000000000081529051610a1592600160a060020a031691638df5f0b591600480830192602092919082900301818887803b1580156109e357600080fd5b505af11580156109f7573d6000803e3d6000fd5b505050506040513d6020811015610a0d57600080fd5b505183610707565b92915050565b600054600160a060020a031681565b60008054604080517f21b666b5000000000000000000000000000000000000000000000000000000008152306004820152600160a060020a038581166024830152915191909216916321b666b591604480830192602092919082900301818787803b158015610a9857600080fd5b505af1158015610aac573d6000803e3d6000fd5b505050506040513d60208110156106ff57600080fd5b600080546040805160e060020a63265d903502815230600482015290518392600160a060020a03169163265d90359160248083019261014092919082900301818787803b158015610b1257600080fd5b505af1158015610b26573d6000803e3d6000fd5b505050506040513d610140811015610b3d57600080fd5b506080015192915050565b600080546040805160e060020a633bbac5790281523360048201529051600160a060020a0390921691633bbac5799160248082019260209290919082900301818787803b158015610b9857600080fd5b505af1158015610bac573d6000803e3d6000fd5b505050506040513d6020811015610bc257600080fd5b50511515610bcf57600080fd5b60008054604080517f713674cf00000000000000000000000000000000000000000000000000000000815267ffffffffffffffff8816600482015260248101879052600160a060020a0386811660448301529151919092169263713674cf92606480820193602093909283900390910190829087803b158015610c5157600080fd5b505af1158015610c65573d6000803e3d6000fd5b505050506040513d6020811015610c7b57600080fd5b5051949350505050565b600080546040805160e060020a63265d903502815230600482015290518392600160a060020a03169163265d90359160248083019261014092919082900301818787803b158015610cd557600080fd5b505af1158015610ce9573d6000803e3d6000fd5b505050506040513d610140811015610d0057600080fd5b5060c0015192915050565b600080546040805160e060020a63265d903502815230600482015290518392600160a060020a03169163265d90359160248083019261014092919082900301818787803b158015610d5b57600080fd5b505af1158015610d6f573d6000803e3d6000fd5b505050506040513d610140811015610d8657600080fd5b5060a0015192915050565b600080546040805160e060020a63265d903502815230600482015290518392600160a060020a03169163265d90359160248083019261014092919082900301818787803b158015610de157600080fd5b505af1158015610df5573d6000803e3d6000fd5b505050506040513d610140811015610e0c57600080fd5b5060e0015192915050565b60008054600160a060020a03163314610e2f57600080fd5b604051600160a060020a0384169083156108fc029084906000818181858888f1979650505050505050565b600080546040805160e060020a63265d903502815230600482015290518392600160a060020a03169163265d90359160248083019261014092919082900301818787803b158015610eaa57600080fd5b505af1158015610ebe573d6000803e3d6000fd5b505050506040513d610140811015610ed557600080fd5b506060015192915050565b600080546040805160e060020a63265d903502815230600482015290518392600160a060020a03169163265d90359160248083019261014092919082900301818787803b158015610f3057600080fd5b505af1158015610f44573d6000803e3d6000fd5b505050506040513d610140811015610f5b57600080fd5b506040015192915050565b60008054600160a060020a03163314610f7e57600080fd5b83600160a060020a031663a9059cbb84846040518363ffffffff1660e060020a0281526004018083600160a060020a0316600160a060020a0316815260200182815260200192505050602060405180830381600087803b158015610c5157600080fd5b600080546040805160e060020a633bbac5790281523360048201529051600160a060020a0390921691633bbac5799160248082019260209290919082900301818787803b15801561103157600080fd5b505af1158015611045573d6000803e3d6000fd5b505050506040513d602081101561105b57600080fd5b5051151561106857600080fd5b6000809054906101000a9004600160a060020a0316600160a060020a031663ea8a1af06040518163ffffffff1660e060020a028152600401602060405180830381600087803b1580156104f457600080fd5b600080546040805160e060020a63265d903502815230600482015290516060939284928492600160a060020a039092169163265d9035916024808201926101409290919082900301818787803b15801561111357600080fd5b505af1158015611127573d6000803e3d6000fd5b505050506040513d61014081101561113e57600080fd5b506101200151604080516020808252818301909252919450808201610400803883390190505091505b60208110156111e55782816020811061117c57fe5b1a7f01000000000000000000000000000000000000000000000000000000000000000282828151811015156111ad57fe5b9060200101907effffffffffffffffffffffffffffffffffffffffffffffffffffffffffffff1916908160001a905350600101611167565b5092915050565b60008054604080517fcecdc6aa0000000000000000000000000000000000000000000000000000000081529051610a1592600160a060020a03169163cecdc6aa91600480830192602092919082900301818887803b1580156109e357600080fd00a165627a7a72305820f98fe60969712a540007f0c498813fc412364ea918017ed0c82bdc5157dba0580029",
  "source": "pragma solidity ^0.4.18;\n\nimport './Auction.sol';\n\ncontract TokenStarsAuctionHub is AuctionHub {\n    //address public ACE = 0x06147110022B768BA8F99A8f385df11a151A9cc8;\n    address public ACE = 0xa0813ad2e1124e0779dc04b385f5229776dcbba8;\n    //address public TEAM = 0x1c79ab32C66aCAa1e9E81952B8AAa581B43e54E7;\n    address public TEAM = 0x10b882e7da9ef31ef6e0e9c4c5457dfaf8dd9a24;\n    //address public wallet = 0x963dF7904cF180aB2C033CEAD0be8687289f05EC;\n    address public wallet = 0x0C9b07209750BbcD1d1716DA52B591f371eeBe77;//\n    address[] public tokens = [ACE, TEAM];\n    uint256[] public rates = [1210993886902860, 1210993886902860];\n    uint256[] public decimals = [0, 4];\n\n    function TokenStarsAuctionHub()\n        public\n        AuctionHub(wallet, tokens, rates, decimals)\n    {\n    }\n\n    function createAuction(\n        address _wallet,\n        uint _endSeconds, \n        uint256 _maxTokenBidInEther,\n        uint256 _minPrice,\n        string _item,\n        bool _allowManagedBids\n    )\n        onlyBot\n        public\n        returns (address)\n    {\n        require (_endSeconds > now);\n        require(_maxTokenBidInEther <= 1000 ether);\n        require(_minPrice > 0);\n\n        Auction auction = new TokenStarsAuction(this);\n\n        ActionState storage auctionState = auctionStates[auction];\n\n        auctionState.endSeconds = _endSeconds;\n        auctionState.maxTokenBidInEther = _maxTokenBidInEther;\n        auctionState.minPrice = _minPrice;\n        auctionState.allowManagedBids = _allowManagedBids;\n        string memory item = _item;\n        auctionState.item = stringToBytes32(item);\n\n        NewAction(auction, _item);\n        return address(auction);\n    }\n}\n\ncontract TokenStarsAuctionHubMock is AuctionHub {\n    uint256[] public rates = [2400000000000000, 2400000000000000];\n    uint256[] public decimals = [0, 4];\n\n    function TokenStarsAuctionHubMock(address _wallet, address[] _tokens)\n        public\n        AuctionHub(_wallet, _tokens, rates, decimals)\n    {\n    }\n\n    function createAuction(\n        uint _endSeconds, \n        uint256 _maxTokenBidInEther,\n        uint256 _minPrice,\n        string _item,\n        bool _allowManagedBids\n    )\n        onlyBot\n        public\n        returns (address)\n    {\n        require (_endSeconds > now);\n        require(_maxTokenBidInEther <= 1000 ether);\n        require(_minPrice > 0);\n\n        Auction auction = new TokenStarsAuction(this);\n\n        ActionState storage auctionState = auctionStates[auction];\n\n        auctionState.endSeconds = _endSeconds;\n        auctionState.maxTokenBidInEther = _maxTokenBidInEther;\n        auctionState.minPrice = _minPrice;\n        auctionState.allowManagedBids = _allowManagedBids;\n        string memory item = _item;\n        auctionState.item = stringToBytes32(item);\n\n        NewAction(auction, _item);\n        return address(auction);\n    }\n}\n\ncontract TokenStarsAuction is Auction {\n        \n    function TokenStarsAuction(\n        address _owner) \n        public\n        Auction(_owner)\n    {\n        \n    }\n\n    function bidAce(uint256 _tokensNumber)\n        payable\n        public\n        returns (bool isHighest)\n    {\n        return super.bid(TokenStarsAuctionHub(owner).ACE(), _tokensNumber);\n    }\n\n    function bidTeam(uint256 _tokensNumber)\n        payable\n        public\n        returns (bool isHighest)\n    {\n        return super.bid(TokenStarsAuctionHub(owner).TEAM(), _tokensNumber);\n    }\n}\n",
  "sourcePath": "D:/WORK/GIT/SolidityAuction/contracts/TokenStarsAuction.sol",
  "compiler": {
    "name": "solc",
    "version": "0.4.24+commit.e67f0147.Emscripten.clang"
  },
  "schemaVersion": "3.0.3",
  "updatedAt": "2019-03-17T12:59:19.032Z",
  "devdoc": {
    "methods": {}
  },
  "userdoc": {
    "methods": {}
  }
}