{
  "contractName": "TokenStarsAuction",
  "abi": [
    {
      "constant": true,
      "inputs": [],
      "name": "highestBidInUsd",
      "outputs": [
        {
          "name": "",
          "type": "uint256"
        }
      ],
      "payable": false,
      "stateMutability": "view",
      "type": "function"
    },
    {
      "constant": false,
      "inputs": [],
      "name": "withdraw",
      "outputs": [
        {
          "name": "success",
          "type": "bool"
        }
      ],
      "payable": false,
      "stateMutability": "nonpayable",
      "type": "function"
    },
    {
      "constant": false,
      "inputs": [],
      "name": "finalize",
      "outputs": [
        {
          "name": "",
          "type": "bool"
        }
      ],
      "payable": false,
      "stateMutability": "nonpayable",
      "type": "function"
    },
    {
      "constant": true,
      "inputs": [],
      "name": "maxTokenBidInEther",
      "outputs": [
        {
          "name": "",
          "type": "uint256"
        }
      ],
      "payable": false,
      "stateMutability": "view",
      "type": "function"
    },
    {
      "constant": true,
      "inputs": [],
      "name": "endSeconds",
      "outputs": [
        {
          "name": "",
          "type": "uint256"
        }
      ],
      "payable": false,
      "stateMutability": "view",
      "type": "function"
    },
    {
      "constant": false,
      "inputs": [
        {
          "name": "_token",
          "type": "address"
        },
        {
          "name": "_tokensNumber",
          "type": "uint256"
        }
      ],
      "name": "bid",
      "outputs": [
        {
          "name": "isHighest",
          "type": "bool"
        },
        {
          "name": "isHighestInUsd",
          "type": "bool"
        }
      ],
      "payable": true,
      "stateMutability": "payable",
      "type": "function"
    },
    {
      "constant": true,
      "inputs": [],
      "name": "maxTokenBidInUsd",
      "outputs": [
        {
          "name": "",
          "type": "uint256"
        }
      ],
      "payable": false,
      "stateMutability": "view",
      "type": "function"
    },
    {
      "constant": true,
      "inputs": [],
      "name": "highestBidderInUsd",
      "outputs": [
        {
          "name": "",
          "type": "address"
        }
      ],
      "payable": false,
      "stateMutability": "view",
      "type": "function"
    },
    {
      "constant": true,
      "inputs": [],
      "name": "owner",
      "outputs": [
        {
          "name": "",
          "type": "address"
        }
      ],
      "payable": false,
      "stateMutability": "view",
      "type": "function"
    },
    {
      "constant": true,
      "inputs": [
        {
          "name": "_bidder",
          "type": "address"
        }
      ],
      "name": "totalDirectBid",
      "outputs": [
        {
          "name": "",
          "type": "uint256"
        }
      ],
      "payable": false,
      "stateMutability": "view",
      "type": "function"
    },
    {
      "constant": true,
      "inputs": [],
      "name": "highestBidder",
      "outputs": [
        {
          "name": "",
          "type": "address"
        }
      ],
      "payable": false,
      "stateMutability": "view",
      "type": "function"
    },
    {
      "constant": true,
      "inputs": [],
      "name": "cancelled",
      "outputs": [
        {
          "name": "",
          "type": "bool"
        }
      ],
      "payable": false,
      "stateMutability": "view",
      "type": "function"
    },
    {
      "constant": true,
      "inputs": [],
      "name": "allowManagedBids",
      "outputs": [
        {
          "name": "",
          "type": "bool"
        }
      ],
      "payable": false,
      "stateMutability": "view",
      "type": "function"
    },
    {
      "constant": true,
      "inputs": [],
      "name": "finalized",
      "outputs": [
        {
          "name": "",
          "type": "bool"
        }
      ],
      "payable": false,
      "stateMutability": "view",
      "type": "function"
    },
    {
      "constant": true,
      "inputs": [
        {
          "name": "_bidder",
          "type": "address"
        }
      ],
      "name": "totalDirectBidInUsd",
      "outputs": [
        {
          "name": "",
          "type": "uint256"
        }
      ],
      "payable": false,
      "stateMutability": "view",
      "type": "function"
    },
    {
      "constant": false,
      "inputs": [
        {
          "name": "_to",
          "type": "address"
        },
        {
          "name": "_amount",
          "type": "uint256"
        }
      ],
      "name": "sendEther",
      "outputs": [
        {
          "name": "",
          "type": "bool"
        }
      ],
      "payable": false,
      "stateMutability": "nonpayable",
      "type": "function"
    },
    {
      "constant": true,
      "inputs": [],
      "name": "highestBid",
      "outputs": [
        {
          "name": "",
          "type": "uint256"
        }
      ],
      "payable": false,
      "stateMutability": "view",
      "type": "function"
    },
    {
      "constant": true,
      "inputs": [],
      "name": "minPrice",
      "outputs": [
        {
          "name": "",
          "type": "uint256"
        }
      ],
      "payable": false,
      "stateMutability": "view",
      "type": "function"
    },
    {
      "constant": false,
      "inputs": [
        {
          "name": "_token",
          "type": "address"
        },
        {
          "name": "_to",
          "type": "address"
        },
        {
          "name": "_amount",
          "type": "uint256"
        }
      ],
      "name": "sendTokens",
      "outputs": [
        {
          "name": "",
          "type": "bool"
        }
      ],
      "payable": false,
      "stateMutability": "nonpayable",
      "type": "function"
    },
    {
      "constant": false,
      "inputs": [],
      "name": "cancel",
      "outputs": [
        {
          "name": "success",
          "type": "bool"
        }
      ],
      "payable": false,
      "stateMutability": "nonpayable",
      "type": "function"
    },
    {
      "constant": true,
      "inputs": [],
      "name": "item",
      "outputs": [
        {
          "name": "",
          "type": "string"
        }
      ],
      "payable": false,
      "stateMutability": "view",
      "type": "function"
    },
    {
      "inputs": [
        {
          "name": "_owner",
          "type": "address"
        }
      ],
      "payable": false,
      "stateMutability": "nonpayable",
      "type": "constructor"
    },
    {
      "payable": true,
      "stateMutability": "payable",
      "type": "fallback"
    },
    {
      "constant": false,
      "inputs": [
        {
          "name": "_tokensNumber",
          "type": "uint256"
        }
      ],
      "name": "bidAce",
      "outputs": [
        {
          "name": "isHighest",
          "type": "bool"
        },
        {
          "name": "isHighestInUsd",
          "type": "bool"
        }
      ],
      "payable": true,
      "stateMutability": "payable",
      "type": "function"
    },
    {
      "constant": false,
      "inputs": [
        {
          "name": "_tokensNumber",
          "type": "uint256"
        }
      ],
      "name": "bidTeam",
      "outputs": [
        {
          "name": "isHighest",
          "type": "bool"
        },
        {
          "name": "isHighestInUsd",
          "type": "bool"
        }
      ],
      "payable": true,
      "stateMutability": "payable",
      "type": "function"
    }
  ],
  "bytecode": "0x608060405234801561001057600080fd5b506040516020806115de833981016040525180600160a060020a038116151561003857600080fd5b60008054600160a060020a03909216600160a060020a031990921691909117905550611575806100696000396000f3006080604052600436106101195763ffffffff60e060020a6000350416631c958b4c81146101c05780633ccfd60b146101e75780634bb278f3146102105780634c8cb943146102255780634c936ea81461023a57806359d667a51461024f578063613b8ef51461028157806378bb7b2614610296578063898ae4e3146102c75780638da5cb5b146102d257806390d0da9f146102e757806391f90157146103085780639a82a09a1461031d5780639d6e653814610332578063b3f05b9714610347578063b51b73d41461035c578063c1756a2c1461037d578063d57bde79146103a1578063e45be8eb146103b6578063e6d66ac8146103cb578063ea8a1af0146103f5578063f2a4a82e1461040a578063f3f80d9114610494575b60008054604080517fb567858800000000000000000000000000000000000000000000000000000000815233600482015234602482015260448101849052606481018490528151600160a060020a039093169363b567858893608480840194939192918390030190829087803b15801561019257600080fd5b505af11580156101a6573d6000803e3d6000fd5b505050506040513d60408110156101bc57600080fd5b5050005b3480156101cc57600080fd5b506101d561049f565b60408051918252519081900360200190f35b3480156101f357600080fd5b506101fc610565565b604080519115158252519081900360200190f35b34801561021c57600080fd5b506101fc6105fc565b34801561023157600080fd5b506101d56106eb565b34801561024657600080fd5b506101d56107b0565b610266600160a060020a0360043516602435610872565b60408051921515835290151560208301528051918290030190f35b34801561028d57600080fd5b506101d56109ee565b3480156102a257600080fd5b506102ab610ab4565b60408051600160a060020a039092168252519081900360200190f35b610266600435610b7a565b3480156102de57600080fd5b506102ab610c0d565b3480156102f357600080fd5b506101d5600160a060020a0360043516610c1c565b34801561031457600080fd5b506102ab610cbc565b34801561032957600080fd5b506101fc610d81565b34801561033e57600080fd5b506101fc610e46565b34801561035357600080fd5b506101fc610f0b565b34801561036857600080fd5b506101d5600160a060020a0360043516610fd0565b34801561038957600080fd5b506101fc600160a060020a036004351660243561103e565b3480156103ad57600080fd5b506101d5611081565b3480156103c257600080fd5b506101d5611146565b3480156103d757600080fd5b506101fc600160a060020a036004358116906024351660443561120b565b34801561040157600080fd5b506101fc6112ba565b34801561041657600080fd5b5061041f6113a9565b6040805160208082528351818301528351919283929083019185019080838360005b83811015610459578181015183820152602001610441565b50505050905090810190601f1680156104865780820380516001836020036101000a031916815260200191505b509250505060405180910390f35b6102666004356114f1565b60008060008060008060008060008060008060008060009054906101000a9004600160a060020a0316600160a060020a031663265d9035306040518263ffffffff1660e060020a0281526004018082600160a060020a0316600160a060020a0316815260200191505061018060405180830381600087803b15801561052357600080fd5b505af1158015610537573d6000803e3d6000fd5b505050506040513d61018081101561054e57600080fd5b5061012001519d9c50505050505050505050505050565b60008054604080517f51cff8d90000000000000000000000000000000000000000000000000000000081523360048201529051600160a060020a03909216916351cff8d99160248082019260209290919082900301818787803b1580156105cb57600080fd5b505af11580156105df573d6000803e3d6000fd5b505050506040513d60208110156105f557600080fd5b5051905090565b60008054604080517f3bbac5790000000000000000000000000000000000000000000000000000000081523360048201529051600160a060020a0390921691633bbac5799160248082019260209290919082900301818787803b15801561066257600080fd5b505af1158015610676573d6000803e3d6000fd5b505050506040513d602081101561068c57600080fd5b5051151561069957600080fd5b6000809054906101000a9004600160a060020a0316600160a060020a0316634bb278f36040518163ffffffff1660e060020a028152600401602060405180830381600087803b1580156105cb57600080fd5b60008060008060008060008060008060008060008060009054906101000a9004600160a060020a0316600160a060020a031663265d9035306040518263ffffffff1660e060020a0281526004018082600160a060020a0316600160a060020a0316815260200191505061018060405180830381600087803b15801561076f57600080fd5b505af1158015610783573d6000803e3d6000fd5b505050506040513d61018081101561079a57600080fd5b50602001519d9c50505050505050505050505050565b60008060008060008060008060008060008060008060009054906101000a9004600160a060020a0316600160a060020a031663265d9035306040518263ffffffff1660e060020a0281526004018082600160a060020a0316600160a060020a0316815260200191505061018060405180830381600087803b15801561083457600080fd5b505af1158015610848573d6000803e3d6000fd5b505050506040513d61018081101561085f57600080fd5b50519d9c50505050505050505050505050565b600080600160a060020a0384161580159061088d5750600083115b1561093757604080517f23b872dd000000000000000000000000000000000000000000000000000000008152336004820152306024820152604481018590529051600160a060020a038616916323b872dd9160648083019260209291908290030181600087803b15801561090057600080fd5b505af1158015610914573d6000803e3d6000fd5b505050506040513d602081101561092a57600080fd5b5051151561093757600080fd5b60008054604080517fb5678588000000000000000000000000000000000000000000000000000000008152336004820152346024820152600160a060020a03888116604483015260648201889052825193169363b567858893608480840194939192918390030190829087803b1580156109b057600080fd5b505af11580156109c4573d6000803e3d6000fd5b505050506040513d60408110156109da57600080fd5b508051602090910151909590945092505050565b60008060008060008060008060008060008060008060009054906101000a9004600160a060020a0316600160a060020a031663265d9035306040518263ffffffff1660e060020a0281526004018082600160a060020a0316600160a060020a0316815260200191505061018060405180830381600087803b158015610a7257600080fd5b505af1158015610a86573d6000803e3d6000fd5b505050506040513d610180811015610a9d57600080fd5b5061010001519d9c50505050505050505050505050565b60008060008060008060008060008060008060008060009054906101000a9004600160a060020a0316600160a060020a031663265d9035306040518263ffffffff1660e060020a0281526004018082600160a060020a0316600160a060020a0316815260200191505061018060405180830381600087803b158015610b3857600080fd5b505af1158015610b4c573d6000803e3d6000fd5b505050506040513d610180811015610b6357600080fd5b5061014001519d9c50505050505050505050505050565b600080610c046000809054906101000a9004600160a060020a0316600160a060020a0316638df5f0b56040518163ffffffff1660e060020a028152600401602060405180830381600087803b158015610bd257600080fd5b505af1158015610be6573d6000803e3d6000fd5b505050506040513d6020811015610bfc57600080fd5b505184610872565b91509150915091565b600054600160a060020a031681565b60008054604080517f21b666b5000000000000000000000000000000000000000000000000000000008152306004820152600160a060020a038581166024830152915191909216916321b666b591604480830192602092919082900301818787803b158015610c8a57600080fd5b505af1158015610c9e573d6000803e3d6000fd5b505050506040513d6020811015610cb457600080fd5b505192915050565b60008060008060008060008060008060008060008060009054906101000a9004600160a060020a0316600160a060020a031663265d9035306040518263ffffffff1660e060020a0281526004018082600160a060020a0316600160a060020a0316815260200191505061018060405180830381600087803b158015610d4057600080fd5b505af1158015610d54573d6000803e3d6000fd5b505050506040513d610180811015610d6b57600080fd5b50608001519d9c50505050505050505050505050565b60008060008060008060008060008060008060008060009054906101000a9004600160a060020a0316600160a060020a031663265d9035306040518263ffffffff1660e060020a0281526004018082600160a060020a0316600160a060020a0316815260200191505061018060405180830381600087803b158015610e0557600080fd5b505af1158015610e19573d6000803e3d6000fd5b505050506040513d610180811015610e3057600080fd5b5060c001519d9c50505050505050505050505050565b60008060008060008060008060008060008060008060009054906101000a9004600160a060020a0316600160a060020a031663265d9035306040518263ffffffff1660e060020a0281526004018082600160a060020a0316600160a060020a0316815260200191505061018060405180830381600087803b158015610eca57600080fd5b505af1158015610ede573d6000803e3d6000fd5b505050506040513d610180811015610ef557600080fd5b5060a001519d9c50505050505050505050505050565b60008060008060008060008060008060008060008060009054906101000a9004600160a060020a0316600160a060020a031663265d9035306040518263ffffffff1660e060020a0281526004018082600160a060020a0316600160a060020a0316815260200191505061018060405180830381600087803b158015610f8f57600080fd5b505af1158015610fa3573d6000803e3d6000fd5b505050506040513d610180811015610fba57600080fd5b5060e001519d9c50505050505050505050505050565b60008054604080517fe66b1bc1000000000000000000000000000000000000000000000000000000008152306004820152600160a060020a0385811660248301529151919092169163e66b1bc191604480830192602092919082900301818787803b158015610c8a57600080fd5b60008054600160a060020a0316331461105657600080fd5b604051600160a060020a0384169083156108fc029084906000818181858888f1979650505050505050565b60008060008060008060008060008060008060008060009054906101000a9004600160a060020a0316600160a060020a031663265d9035306040518263ffffffff1660e060020a0281526004018082600160a060020a0316600160a060020a0316815260200191505061018060405180830381600087803b15801561110557600080fd5b505af1158015611119573d6000803e3d6000fd5b505050506040513d61018081101561113057600080fd5b50606001519d9c50505050505050505050505050565b60008060008060008060008060008060008060008060009054906101000a9004600160a060020a0316600160a060020a031663265d9035306040518263ffffffff1660e060020a0281526004018082600160a060020a0316600160a060020a0316815260200191505061018060405180830381600087803b1580156111ca57600080fd5b505af11580156111de573d6000803e3d6000fd5b505050506040513d6101808110156111f557600080fd5b50604001519d9c50505050505050505050505050565b60008054600160a060020a0316331461122357600080fd5b83600160a060020a031663a9059cbb84846040518363ffffffff1660e060020a0281526004018083600160a060020a0316600160a060020a0316815260200182815260200192505050602060405180830381600087803b15801561128657600080fd5b505af115801561129a573d6000803e3d6000fd5b505050506040513d60208110156112b057600080fd5b5051949350505050565b60008054604080517f3bbac5790000000000000000000000000000000000000000000000000000000081523360048201529051600160a060020a0390921691633bbac5799160248082019260209290919082900301818787803b15801561132057600080fd5b505af1158015611334573d6000803e3d6000fd5b505050506040513d602081101561134a57600080fd5b5051151561135757600080fd5b6000809054906101000a9004600160a060020a0316600160a060020a031663ea8a1af06040518163ffffffff1660e060020a028152600401602060405180830381600087803b1580156105cb57600080fd5b60008054604080517f265d903500000000000000000000000000000000000000000000000000000000815230600482015290516060939284928492600160a060020a039092169163265d9035916024808201926101809290919082900301818787803b15801561141857600080fd5b505af115801561142c573d6000803e3d6000fd5b505050506040513d61018081101561144357600080fd5b506101600151604080516020808252818301909252919450808201610400803883390190505091505b60208110156114ea5782816020811061148157fe5b1a7f01000000000000000000000000000000000000000000000000000000000000000282828151811015156114b257fe5b9060200101907effffffffffffffffffffffffffffffffffffffffffffffffffffffffffffff1916908160001a90535060010161146c565b5092915050565b600080610c046000809054906101000a9004600160a060020a0316600160a060020a031663cecdc6aa6040518163ffffffff1660e060020a028152600401602060405180830381600087803b158015610bd257600080fd00a165627a7a72305820733645b204b4258bdcf7135f905bfa8bff539579673ce6b9bbe039204902cf200029",
  "source": "pragma solidity ^0.4.18;\n\nimport './Auction.sol';\n\ncontract TokenStarsAuctionHub is AuctionHub {\n    address public ACE = 0x06147110022B768BA8F99A8f385df11a151A9cc8;\n    //address public ACE = 0xa0813ad2e1124e0779dc04b385f5229776dcbba8;\n    address public TEAM = 0x1c79ab32C66aCAa1e9E81952B8AAa581B43e54E7;\n    //address public TEAM = 0x10b882e7da9ef31ef6e0e9c4c5457dfaf8dd9a24;\n    //address public wallet = 0x963dF7904cF180aB2C033CEAD0be8687289f05EC;\n    address public wallet = 0x0C9b07209750BbcD1d1716DA52B591f371eeBe77;//\n    address[] public tokens = [ACE, TEAM];\n    // ACE = 0.01 ETH; \n    // TEAM = 0,002 ETH\n    uint256[] public rates = [10000000000000000, 2000000000000000];\n    uint256[] public decimals = [0, 4];\n    // ETH = $138.55\n    uint256 public etherRate = 13855;\n\n    function TokenStarsAuctionHub()\n        public\n        AuctionHub(wallet, tokens, rates, decimals, etherRate)\n    {\n    }\n\n    function createAuction(\n        address _wallet,\n        uint _endSeconds, \n        uint256 _maxTokenBidInEther,\n        uint256 _minPrice,\n        string _item,\n        bool _allowManagedBids\n    )\n        onlyBot\n        public\n        returns (address)\n    {\n        require (_endSeconds > now);\n        require(_maxTokenBidInEther <= 1000 ether);\n        require(_minPrice > 0);\n\n        Auction auction = new TokenStarsAuction(this);\n\n        ActionState storage auctionState = auctionStates[auction];\n\n        auctionState.endSeconds = _endSeconds;\n        auctionState.maxTokenBidInEther = _maxTokenBidInEther;\n        auctionState.minPrice = _minPrice;\n        auctionState.allowManagedBids = _allowManagedBids;\n        string memory item = _item;\n        auctionState.item = stringToBytes32(item);\n\n        NewAction(auction, _item);\n        return address(auction);\n    }\n}\n\ncontract TokenStarsAuctionHubMock is AuctionHub {\n    uint256[] public rates = [2400000000000000, 2400000000000000];\n    uint256[] public decimals = [0, 4];\n    uint256 public etherRate = 13855;\n\n    function TokenStarsAuctionHubMock(address _wallet, address[] _tokens)\n        public\n        AuctionHub(_wallet, _tokens, rates, decimals, etherRate)\n    {\n    }\n\n    function createAuction(\n        uint _endSeconds, \n        uint256 _maxTokenBidInEther,\n        uint256 _minPrice,\n        string _item,\n        bool _allowManagedBids\n    )\n        onlyBot\n        public\n        returns (address)\n    {\n        require (_endSeconds > now);\n        require(_maxTokenBidInEther <= 1000 ether);\n        require(_minPrice > 0);\n\n        Auction auction = new TokenStarsAuction(this);\n\n        ActionState storage auctionState = auctionStates[auction];\n\n        auctionState.endSeconds = _endSeconds;\n        auctionState.maxTokenBidInEther = _maxTokenBidInEther;\n        auctionState.maxTokenBidInUsd = _maxTokenBidInEther.mul(etherRate).div(10 ** 2);\n        auctionState.minPrice = _minPrice;\n        auctionState.allowManagedBids = _allowManagedBids;\n        string memory item = _item;\n        auctionState.item = stringToBytes32(item);\n\n        NewAction(auction, _item);\n        return address(auction);\n    }\n}\n\ncontract TokenStarsAuction is Auction {\n        \n    function TokenStarsAuction(\n        address _owner) \n        public\n        Auction(_owner)\n    {\n        \n    }\n\n    function bidAce(uint256 _tokensNumber)\n        payable\n        public\n        returns (bool isHighest, bool isHighestInUsd)\n    {\n        return super.bid(TokenStarsAuctionHub(owner).ACE(), _tokensNumber);\n    }\n\n    function bidTeam(uint256 _tokensNumber)\n        payable\n        public\n        returns (bool isHighest, bool isHighestInUsd)\n    {\n        return super.bid(TokenStarsAuctionHub(owner).TEAM(), _tokensNumber);\n    }\n}\n",
  "sourcePath": "D:/WORK/GIT/SolidityAuction/contracts/TokenStarsAuction.sol",
  "compiler": {
    "name": "solc",
    "version": "0.4.24+commit.e67f0147.Emscripten.clang"
  },
  "schemaVersion": "3.0.3",
  "updatedAt": "2019-04-02T11:13:53.979Z",
  "devdoc": {
    "methods": {}
  },
  "userdoc": {
    "methods": {}
  }
}