{
  "contractName": "TokenStarsAuction",
  "abi": [
    {
      "constant": true,
      "inputs": [],
      "name": "highestBidInUsd",
      "outputs": [
        {
          "name": "",
          "type": "uint256"
        }
      ],
      "payable": false,
      "stateMutability": "view",
      "type": "function"
    },
    {
      "constant": false,
      "inputs": [],
      "name": "withdraw",
      "outputs": [
        {
          "name": "success",
          "type": "bool"
        }
      ],
      "payable": false,
      "stateMutability": "nonpayable",
      "type": "function"
    },
    {
      "constant": false,
      "inputs": [],
      "name": "finalize",
      "outputs": [
        {
          "name": "",
          "type": "bool"
        }
      ],
      "payable": false,
      "stateMutability": "nonpayable",
      "type": "function"
    },
    {
      "constant": true,
      "inputs": [],
      "name": "maxTokenBidInEther",
      "outputs": [
        {
          "name": "",
          "type": "uint256"
        }
      ],
      "payable": false,
      "stateMutability": "view",
      "type": "function"
    },
    {
      "constant": true,
      "inputs": [],
      "name": "endSeconds",
      "outputs": [
        {
          "name": "",
          "type": "uint256"
        }
      ],
      "payable": false,
      "stateMutability": "view",
      "type": "function"
    },
    {
      "constant": false,
      "inputs": [
        {
          "name": "_token",
          "type": "address"
        },
        {
          "name": "_tokensNumber",
          "type": "uint256"
        }
      ],
      "name": "bid",
      "outputs": [
        {
          "name": "isHighest",
          "type": "bool"
        },
        {
          "name": "isHighestInUsd",
          "type": "bool"
        }
      ],
      "payable": true,
      "stateMutability": "payable",
      "type": "function"
    },
    {
      "constant": true,
      "inputs": [],
      "name": "maxTokenBidInUsd",
      "outputs": [
        {
          "name": "",
          "type": "uint256"
        }
      ],
      "payable": false,
      "stateMutability": "view",
      "type": "function"
    },
    {
      "constant": true,
      "inputs": [],
      "name": "highestBidderInUsd",
      "outputs": [
        {
          "name": "",
          "type": "address"
        }
      ],
      "payable": false,
      "stateMutability": "view",
      "type": "function"
    },
    {
      "constant": true,
      "inputs": [],
      "name": "owner",
      "outputs": [
        {
          "name": "",
          "type": "address"
        }
      ],
      "payable": false,
      "stateMutability": "view",
      "type": "function"
    },
    {
      "constant": true,
      "inputs": [
        {
          "name": "_bidder",
          "type": "address"
        }
      ],
      "name": "totalDirectBid",
      "outputs": [
        {
          "name": "",
          "type": "uint256"
        }
      ],
      "payable": false,
      "stateMutability": "view",
      "type": "function"
    },
    {
      "constant": true,
      "inputs": [],
      "name": "highestBidder",
      "outputs": [
        {
          "name": "",
          "type": "address"
        }
      ],
      "payable": false,
      "stateMutability": "view",
      "type": "function"
    },
    {
      "constant": true,
      "inputs": [],
      "name": "cancelled",
      "outputs": [
        {
          "name": "",
          "type": "bool"
        }
      ],
      "payable": false,
      "stateMutability": "view",
      "type": "function"
    },
    {
      "constant": true,
      "inputs": [],
      "name": "finalized",
      "outputs": [
        {
          "name": "",
          "type": "bool"
        }
      ],
      "payable": false,
      "stateMutability": "view",
      "type": "function"
    },
    {
      "constant": true,
      "inputs": [
        {
          "name": "_bidder",
          "type": "address"
        }
      ],
      "name": "totalDirectBidInUsd",
      "outputs": [
        {
          "name": "",
          "type": "uint256"
        }
      ],
      "payable": false,
      "stateMutability": "view",
      "type": "function"
    },
    {
      "constant": false,
      "inputs": [
        {
          "name": "_to",
          "type": "address"
        },
        {
          "name": "_amount",
          "type": "uint256"
        }
      ],
      "name": "sendEther",
      "outputs": [
        {
          "name": "",
          "type": "bool"
        }
      ],
      "payable": false,
      "stateMutability": "nonpayable",
      "type": "function"
    },
    {
      "constant": true,
      "inputs": [],
      "name": "highestBid",
      "outputs": [
        {
          "name": "",
          "type": "uint256"
        }
      ],
      "payable": false,
      "stateMutability": "view",
      "type": "function"
    },
    {
      "constant": true,
      "inputs": [],
      "name": "minPrice",
      "outputs": [
        {
          "name": "",
          "type": "uint256"
        }
      ],
      "payable": false,
      "stateMutability": "view",
      "type": "function"
    },
    {
      "constant": false,
      "inputs": [
        {
          "name": "_token",
          "type": "address"
        },
        {
          "name": "_to",
          "type": "address"
        },
        {
          "name": "_amount",
          "type": "uint256"
        }
      ],
      "name": "sendTokens",
      "outputs": [
        {
          "name": "",
          "type": "bool"
        }
      ],
      "payable": false,
      "stateMutability": "nonpayable",
      "type": "function"
    },
    {
      "constant": false,
      "inputs": [],
      "name": "cancel",
      "outputs": [
        {
          "name": "success",
          "type": "bool"
        }
      ],
      "payable": false,
      "stateMutability": "nonpayable",
      "type": "function"
    },
    {
      "constant": true,
      "inputs": [],
      "name": "item",
      "outputs": [
        {
          "name": "",
          "type": "string"
        }
      ],
      "payable": false,
      "stateMutability": "view",
      "type": "function"
    },
    {
      "inputs": [
        {
          "name": "_owner",
          "type": "address"
        }
      ],
      "payable": false,
      "stateMutability": "nonpayable",
      "type": "constructor"
    },
    {
      "payable": true,
      "stateMutability": "payable",
      "type": "fallback"
    },
    {
      "constant": false,
      "inputs": [
        {
          "name": "_tokensNumber",
          "type": "uint256"
        }
      ],
      "name": "bidAce",
      "outputs": [
        {
          "name": "isHighest",
          "type": "bool"
        },
        {
          "name": "isHighestInUsd",
          "type": "bool"
        }
      ],
      "payable": true,
      "stateMutability": "payable",
      "type": "function"
    },
    {
      "constant": false,
      "inputs": [
        {
          "name": "_tokensNumber",
          "type": "uint256"
        }
      ],
      "name": "bidTeam",
      "outputs": [
        {
          "name": "isHighest",
          "type": "bool"
        },
        {
          "name": "isHighestInUsd",
          "type": "bool"
        }
      ],
      "payable": true,
      "stateMutability": "payable",
      "type": "function"
    }
  ],
  "bytecode": "0x608060405234801561001057600080fd5b5060405160208061153d833981016040525180600160a060020a038116151561003857600080fd5b60008054600160a060020a03909216600160a060020a0319909216919091179055506114d4806100696000396000f30060806040526004361061010e5763ffffffff60e060020a6000350416631c958b4c81146101b55780633ccfd60b146101dc5780634bb278f3146102055780634c8cb9431461021a5780634c936ea81461022f57806359d667a514610244578063613b8ef51461027657806378bb7b261461028b578063898ae4e3146102bc5780638da5cb5b146102c757806390d0da9f146102dc57806391f90157146102fd5780639a82a09a14610312578063b3f05b9714610327578063b51b73d41461033c578063c1756a2c1461035d578063d57bde7914610381578063e45be8eb14610396578063e6d66ac8146103ab578063ea8a1af0146103d5578063f2a4a82e146103ea578063f3f80d9114610474575b60008054604080517fb567858800000000000000000000000000000000000000000000000000000000815233600482015234602482015260448101849052606481018490528151600160a060020a039093169363b567858893608480840194939192918390030190829087803b15801561018757600080fd5b505af115801561019b573d6000803e3d6000fd5b505050506040513d60408110156101b157600080fd5b5050005b3480156101c157600080fd5b506101ca61047f565b60408051918252519081900360200190f35b3480156101e857600080fd5b506101f1610542565b604080519115158252519081900360200190f35b34801561021157600080fd5b506101f16105d9565b34801561022657600080fd5b506101ca6106c8565b34801561023b57600080fd5b506101ca610764565b61025b600160a060020a03600435166024356107fd565b60408051921515835290151560208301528051918290030190f35b34801561028257600080fd5b506101ca610979565b34801561029757600080fd5b506102a0610a3b565b60408051600160a060020a039092168252519081900360200190f35b61025b600435610afe565b3480156102d357600080fd5b506102a0610b91565b3480156102e857600080fd5b506101ca600160a060020a0360043516610ba0565b34801561030957600080fd5b506102a0610c38565b34801561031e57600080fd5b506101f1610cfa565b34801561033357600080fd5b506101f1610dbc565b34801561034857600080fd5b506101ca600160a060020a0360043516610e7e565b34801561036957600080fd5b506101f1600160a060020a0360043516602435610eec565b34801561038d57600080fd5b506101ca610f2f565b3480156103a257600080fd5b506101ca610ff1565b3480156103b757600080fd5b506101f1600160a060020a03600435811690602435166044356110b3565b3480156103e157600080fd5b506101f1611162565b3480156103f657600080fd5b506103ff611251565b6040805160208082528351818301528351919283929083019185019080838360005b83811015610439578181015183820152602001610421565b50505050905090810190601f1680156104665780820380516001836020036101000a031916815260200191505b509250505060405180910390f35b61025b600435611450565b6000806000806000806000806000806000806000809054906101000a9004600160a060020a0316600160a060020a031663265d9035306040518263ffffffff1660e060020a0281526004018082600160a060020a0316600160a060020a0316815260200191505061016060405180830381600087803b15801561050157600080fd5b505af1158015610515573d6000803e3d6000fd5b505050506040513d61016081101561052c57600080fd5b5061010001519c9b505050505050505050505050565b60008054604080517f51cff8d90000000000000000000000000000000000000000000000000000000081523360048201529051600160a060020a03909216916351cff8d99160248082019260209290919082900301818787803b1580156105a857600080fd5b505af11580156105bc573d6000803e3d6000fd5b505050506040513d60208110156105d257600080fd5b5051905090565b60008054604080517f3bbac5790000000000000000000000000000000000000000000000000000000081523360048201529051600160a060020a0390921691633bbac5799160248082019260209290919082900301818787803b15801561063f57600080fd5b505af1158015610653573d6000803e3d6000fd5b505050506040513d602081101561066957600080fd5b5051151561067657600080fd5b6000809054906101000a9004600160a060020a0316600160a060020a0316634bb278f36040518163ffffffff1660e060020a028152600401602060405180830381600087803b1580156105a857600080fd5b60008054604080517f265d903500000000000000000000000000000000000000000000000000000000815230600482015290518392600160a060020a03169163265d90359160248083019261016092919082900301818787803b15801561072e57600080fd5b505af1158015610742573d6000803e3d6000fd5b505050506040513d61016081101561075957600080fd5b506020015192915050565b60008054604080517f265d903500000000000000000000000000000000000000000000000000000000815230600482015290518392600160a060020a03169163265d90359160248083019261016092919082900301818787803b1580156107ca57600080fd5b505af11580156107de573d6000803e3d6000fd5b505050506040513d6101608110156107f557600080fd5b505192915050565b600080600160a060020a038416158015906108185750600083115b156108c257604080517f23b872dd000000000000000000000000000000000000000000000000000000008152336004820152306024820152604481018590529051600160a060020a038616916323b872dd9160648083019260209291908290030181600087803b15801561088b57600080fd5b505af115801561089f573d6000803e3d6000fd5b505050506040513d60208110156108b557600080fd5b505115156108c257600080fd5b60008054604080517fb5678588000000000000000000000000000000000000000000000000000000008152336004820152346024820152600160a060020a03888116604483015260648201889052825193169363b567858893608480840194939192918390030190829087803b15801561093b57600080fd5b505af115801561094f573d6000803e3d6000fd5b505050506040513d604081101561096557600080fd5b508051602090910151909590945092505050565b6000806000806000806000806000806000806000809054906101000a9004600160a060020a0316600160a060020a031663265d9035306040518263ffffffff1660e060020a0281526004018082600160a060020a0316600160a060020a0316815260200191505061016060405180830381600087803b1580156109fb57600080fd5b505af1158015610a0f573d6000803e3d6000fd5b505050506040513d610160811015610a2657600080fd5b5060e001519c9b505050505050505050505050565b6000806000806000806000806000806000806000809054906101000a9004600160a060020a0316600160a060020a031663265d9035306040518263ffffffff1660e060020a0281526004018082600160a060020a0316600160a060020a0316815260200191505061016060405180830381600087803b158015610abd57600080fd5b505af1158015610ad1573d6000803e3d6000fd5b505050506040513d610160811015610ae857600080fd5b5061012001519c9b505050505050505050505050565b600080610b886000809054906101000a9004600160a060020a0316600160a060020a0316638df5f0b56040518163ffffffff1660e060020a028152600401602060405180830381600087803b158015610b5657600080fd5b505af1158015610b6a573d6000803e3d6000fd5b505050506040513d6020811015610b8057600080fd5b5051846107fd565b91509150915091565b600054600160a060020a031681565b60008054604080517f21b666b5000000000000000000000000000000000000000000000000000000008152306004820152600160a060020a038581166024830152915191909216916321b666b591604480830192602092919082900301818787803b158015610c0e57600080fd5b505af1158015610c22573d6000803e3d6000fd5b505050506040513d60208110156107f557600080fd5b6000806000806000806000806000806000806000809054906101000a9004600160a060020a0316600160a060020a031663265d9035306040518263ffffffff1660e060020a0281526004018082600160a060020a0316600160a060020a0316815260200191505061016060405180830381600087803b158015610cba57600080fd5b505af1158015610cce573d6000803e3d6000fd5b505050506040513d610160811015610ce557600080fd5b50608001519c9b505050505050505050505050565b6000806000806000806000806000806000806000809054906101000a9004600160a060020a0316600160a060020a031663265d9035306040518263ffffffff1660e060020a0281526004018082600160a060020a0316600160a060020a0316815260200191505061016060405180830381600087803b158015610d7c57600080fd5b505af1158015610d90573d6000803e3d6000fd5b505050506040513d610160811015610da757600080fd5b5060a001519c9b505050505050505050505050565b6000806000806000806000806000806000806000809054906101000a9004600160a060020a0316600160a060020a031663265d9035306040518263ffffffff1660e060020a0281526004018082600160a060020a0316600160a060020a0316815260200191505061016060405180830381600087803b158015610e3e57600080fd5b505af1158015610e52573d6000803e3d6000fd5b505050506040513d610160811015610e6957600080fd5b5060c001519c9b505050505050505050505050565b60008054604080517fe66b1bc1000000000000000000000000000000000000000000000000000000008152306004820152600160a060020a0385811660248301529151919092169163e66b1bc191604480830192602092919082900301818787803b158015610c0e57600080fd5b60008054600160a060020a03163314610f0457600080fd5b604051600160a060020a0384169083156108fc029084906000818181858888f1979650505050505050565b6000806000806000806000806000806000806000809054906101000a9004600160a060020a0316600160a060020a031663265d9035306040518263ffffffff1660e060020a0281526004018082600160a060020a0316600160a060020a0316815260200191505061016060405180830381600087803b158015610fb157600080fd5b505af1158015610fc5573d6000803e3d6000fd5b505050506040513d610160811015610fdc57600080fd5b50606001519c9b505050505050505050505050565b6000806000806000806000806000806000806000809054906101000a9004600160a060020a0316600160a060020a031663265d9035306040518263ffffffff1660e060020a0281526004018082600160a060020a0316600160a060020a0316815260200191505061016060405180830381600087803b15801561107357600080fd5b505af1158015611087573d6000803e3d6000fd5b505050506040513d61016081101561109e57600080fd5b50604001519c9b505050505050505050505050565b60008054600160a060020a031633146110cb57600080fd5b83600160a060020a031663a9059cbb84846040518363ffffffff1660e060020a0281526004018083600160a060020a0316600160a060020a0316815260200182815260200192505050602060405180830381600087803b15801561112e57600080fd5b505af1158015611142573d6000803e3d6000fd5b505050506040513d602081101561115857600080fd5b5051949350505050565b60008054604080517f3bbac5790000000000000000000000000000000000000000000000000000000081523360048201529051600160a060020a0390921691633bbac5799160248082019260209290919082900301818787803b1580156111c857600080fd5b505af11580156111dc573d6000803e3d6000fd5b505050506040513d60208110156111f257600080fd5b505115156111ff57600080fd5b6000809054906101000a9004600160a060020a0316600160a060020a031663ea8a1af06040518163ffffffff1660e060020a028152600401602060405180830381600087803b1580156105a857600080fd5b60606000806000806000806000806000806000606060008060009054906101000a9004600160a060020a0316600160a060020a031663265d9035306040518263ffffffff1660e060020a0281526004018082600160a060020a0316600160a060020a0316815260200191505061016060405180830381600087803b1580156112d857600080fd5b505af11580156112ec573d6000803e3d6000fd5b505050506040513d61016081101561130357600080fd5b8101908080519060200190929190805190602001909291908051906020019092919080519060200190929190805190602001909291908051906020019092919080519060200190929190805190602001909291908051906020019092919080519060200190929190805190602001909291905050509c509c509c509c509c509c509c509c509c509c509c5060206040519080825280601f01601f1916602001820160405280156113bd578160200160208202803883390190505b5091505b602081101561143f578281602081106113d657fe5b1a7f010000000000000000000000000000000000000000000000000000000000000002828281518110151561140757fe5b9060200101907effffffffffffffffffffffffffffffffffffffffffffffffffffffffffffff1916908160001a9053506001016113c1565b509c9b505050505050505050505050565b600080610b886000809054906101000a9004600160a060020a0316600160a060020a031663cecdc6aa6040518163ffffffff1660e060020a028152600401602060405180830381600087803b158015610b5657600080fd00a165627a7a7230582057f0a1dffc490b93ae030715af9d4e0d779b9822a52de0827eb2ad21cc201c380029",
  "source": "pragma solidity ^0.4.18;\n\nimport './Auction.sol';\n\ncontract TokenStarsAuctionHub is AuctionHub {\n    //real\n    address public ACE = 0x06147110022B768BA8F99A8f385df11a151A9cc8;\n    //renkeby\n    //address public ACE = 0xa0813ad2e1124e0779dc04b385f5229776dcbba8;\n    //real\n    address public TEAM = 0x1c79ab32C66aCAa1e9E81952B8AAa581B43e54E7;\n    // rinkeby\n    //address public TEAM = 0x10b882e7da9ef31ef6e0e9c4c5457dfaf8dd9a24;\n    //address public wallet = 0x963dF7904cF180aB2C033CEAD0be8687289f05EC;\n    address public wallet = 0x0C9b07209750BbcD1d1716DA52B591f371eeBe77;//\n    address[] public tokens = [ACE, TEAM];\n    // ACE = 0.01 ETH; \n    // TEAM = 0,002 ETH\n    uint256[] public rates = [10000000000000000, 2000000000000000];\n    uint256[] public decimals = [0, 4];\n    // ETH = $138.55\n    uint256 public etherRate = 13855;\n\n    function TokenStarsAuctionHub()\n        public\n        AuctionHub(wallet, tokens, rates, decimals, etherRate)\n    {\n    }\n\n    function createAuction(\n        address _wallet,\n        uint _endSeconds, \n        uint256 _maxTokenBidInEther,\n        uint256 _minPrice,\n        string _item\n        //bool _allowManagedBids\n    )\n        onlyBot\n        public\n        returns (address)\n    {\n        require (_endSeconds > now);\n        require(_maxTokenBidInEther <= 1000 ether);\n        require(_minPrice > 0);\n\n        Auction auction = new TokenStarsAuction(this);\n\n        ActionState storage auctionState = auctionStates[auction];\n\n        auctionState.endSeconds = _endSeconds;\n        auctionState.maxTokenBidInEther = _maxTokenBidInEther;\n        auctionState.minPrice = _minPrice;\n        //auctionState.allowManagedBids = _allowManagedBids;\n        string memory item = _item;\n        auctionState.item = stringToBytes32(item);\n\n        NewAction(auction, _item);\n        return address(auction);\n    }\n}\n\ncontract TokenStarsAuctionHubMock is AuctionHub {\n    uint256[] public rates = [2400000000000000, 2400000000000000];\n    uint256[] public decimals = [0, 4];\n    uint256 public etherRate = 13855;\n\n    function TokenStarsAuctionHubMock(address _wallet, address[] _tokens)\n        public\n        AuctionHub(_wallet, _tokens, rates, decimals, etherRate)\n    {\n    }\n\n    function createAuction(\n        uint _endSeconds, \n        uint256 _maxTokenBidInEther,\n        uint256 _minPrice,\n        string _item\n        //bool _allowManagedBids\n    )\n        onlyBot\n        public\n        returns (address)\n    {\n        require (_endSeconds > now);\n        require(_maxTokenBidInEther <= 1000 ether);\n        require(_minPrice > 0);\n\n        Auction auction = new TokenStarsAuction(this);\n\n        ActionState storage auctionState = auctionStates[auction];\n\n        auctionState.endSeconds = _endSeconds;\n        auctionState.maxTokenBidInEther = _maxTokenBidInEther;\n        auctionState.maxTokenBidInUsd = _maxTokenBidInEther.mul(etherRate).div(10 ** 2);\n        auctionState.minPrice = _minPrice;\n        //auctionState.allowManagedBids = _allowManagedBids;\n        string memory item = _item;\n        auctionState.item = stringToBytes32(item);\n\n        NewAction(auction, _item);\n        return address(auction);\n    }\n}\n\ncontract TokenStarsAuction is Auction {\n        \n    function TokenStarsAuction(\n        address _owner) \n        public\n        Auction(_owner)\n    {\n        \n    }\n\n    function bidAce(uint256 _tokensNumber)\n        payable\n        public\n        returns (bool isHighest, bool isHighestInUsd)\n    {\n        return super.bid(TokenStarsAuctionHub(owner).ACE(), _tokensNumber);\n    }\n\n    function bidTeam(uint256 _tokensNumber)\n        payable\n        public\n        returns (bool isHighest, bool isHighestInUsd)\n    {\n        return super.bid(TokenStarsAuctionHub(owner).TEAM(), _tokensNumber);\n    }\n}\n",
  "sourcePath": "D:/WORK/GIT/SolidityAuction/contracts/TokenStarsAuction.sol",
  "compiler": {
    "name": "solc",
    "version": "0.4.24+commit.e67f0147.Emscripten.clang"
  },
  "schemaVersion": "3.0.3",
  "updatedAt": "2019-04-04T13:18:45.673Z",
  "devdoc": {
    "methods": {}
  },
  "userdoc": {
    "methods": {}
  }
}